{
	"data": {
		"bytecode": {
			"linkReferences": {},
			"object": "6080604052603260085560196009556096600e5534801561001e575f80fd5b5060405161391d38038061391d83398181016040528101906100409190610658565b8660015f6101000a81548173ffffffffffffffffffffffffffffffffffffffff021916908373ffffffffffffffffffffffffffffffffffffffff1602179055508560025f6101000a81548173ffffffffffffffffffffffffffffffffffffffff021916908373ffffffffffffffffffffffffffffffffffffffff1602179055508460035f6101000a81548173ffffffffffffffffffffffffffffffffffffffff021916908373ffffffffffffffffffffffffffffffffffffffff1602179055508360045f6101000a81548173ffffffffffffffffffffffffffffffffffffffff021916908373ffffffffffffffffffffffffffffffffffffffff1602179055508260055f6101000a81548173ffffffffffffffffffffffffffffffffffffffff021916908373ffffffffffffffffffffffffffffffffffffffff1602179055508160065f6101000a81548173ffffffffffffffffffffffffffffffffffffffff021916908373ffffffffffffffffffffffffffffffffffffffff1602179055508060075f6101000a81548173ffffffffffffffffffffffffffffffffffffffff021916908373ffffffffffffffffffffffffffffffffffffffff16021790555060025f9054906101000a900473ffffffffffffffffffffffffffffffffffffffff16600a60405161023090610749565b90815260200160405180910390205f6101000a81548173ffffffffffffffffffffffffffffffffffffffff021916908373ffffffffffffffffffffffffffffffffffffffff16021790555060035f9054906101000a900473ffffffffffffffffffffffffffffffffffffffff16600a6040516102ab906107a7565b90815260200160405180910390205f6101000a81548173ffffffffffffffffffffffffffffffffffffffff021916908373ffffffffffffffffffffffffffffffffffffffff16021790555060045f9054906101000a900473ffffffffffffffffffffffffffffffffffffffff16600a60405161032690610805565b90815260200160405180910390205f6101000a81548173ffffffffffffffffffffffffffffffffffffffff021916908373ffffffffffffffffffffffffffffffffffffffff16021790555060055f9054906101000a900473ffffffffffffffffffffffffffffffffffffffff16600a6040516103a190610863565b90815260200160405180910390205f6101000a81548173ffffffffffffffffffffffffffffffffffffffff021916908373ffffffffffffffffffffffffffffffffffffffff16021790555060065f9054906101000a900473ffffffffffffffffffffffffffffffffffffffff16600a60405161041c906108c1565b90815260200160405180910390205f6101000a81548173ffffffffffffffffffffffffffffffffffffffff021916908373ffffffffffffffffffffffffffffffffffffffff16021790555060075f9054906101000a900473ffffffffffffffffffffffffffffffffffffffff16600a6040516104979061091f565b90815260200160405180910390205f6101000a81548173ffffffffffffffffffffffffffffffffffffffff021916908373ffffffffffffffffffffffffffffffffffffffff160217905550335f806101000a81548173ffffffffffffffffffffffffffffffffffffffff021916908373ffffffffffffffffffffffffffffffffffffffff160217905550608c600b60405161053190610863565b908152602001604051809103902081905550600a600b604051610553906107a7565b908152602001604051809103902081905550600c600b60405161057590610805565b90815260200160405180910390208190555060c8600b60405161059790610749565b9081526020016040518091039020819055506032600b6040516105b9906108c1565b9081526020016040518091039020819055506103e8600b6040516105dc9061091f565b90815260200160405180910390208190555050505050505050610933565b5f80fd5b5f73ffffffffffffffffffffffffffffffffffffffff82169050919050565b5f610627826105fe565b9050919050565b6106378161061d565b8114610641575f80fd5b50565b5f815190506106528161062e565b92915050565b5f805f805f805f60e0888a031215610673576106726105fa565b5b5f6106808a828b01610644565b97505060206106918a828b01610644565b96505060406106a28a828b01610644565b95505060606106b38a828b01610644565b94505060806106c48a828b01610644565b93505060a06106d58a828b01610644565b92505060c06106e68a828b01610644565b91505092959891949750929550565b5f81905092915050565b7f42524c00000000000000000000000000000000000000000000000000000000005f82015250565b5f6107336003836106f5565b915061073e826106ff565b600382019050919050565b5f61075382610727565b9150819050919050565b7f52554200000000000000000000000000000000000000000000000000000000005f82015250565b5f6107916003836106f5565b915061079c8261075d565b600382019050919050565b5f6107b182610785565b9150819050919050565b7f494e5200000000000000000000000000000000000000000000000000000000005f82015250565b5f6107ef6003836106f5565b91506107fa826107bb565b600382019050919050565b5f61080f826107e3565b9150819050919050565b7f434e5900000000000000000000000000000000000000000000000000000000005f82015250565b5f61084d6003836106f5565b915061085882610819565b600382019050919050565b5f61086d82610841565b9150819050919050565b7f5a415200000000000000000000000000000000000000000000000000000000005f82015250565b5f6108ab6003836106f5565b91506108b682610877565b600382019050919050565b5f6108cb8261089f565b9150819050919050565b7f55534400000000000000000000000000000000000000000000000000000000005f82015250565b5f6109096003836106f5565b9150610914826108d5565b600382019050919050565b5f610929826108fd565b9150819050919050565b612fdd806109405f395ff3fe608060405234801561000f575f80fd5b50600436106101cd575f3560e01c806375417da611610102578063be2a0174116100a0578063e85017d61161006f578063e85017d614610567578063f4b5431414610585578063f897a22b146105b5578063fc6f9468146105d3576101cd565b8063be2a0174146104e1578063dc0f957e146104fd578063e2895e971461051b578063e5632da41461054b576101cd565b80638c676a8e116100dc5780638c676a8e1461046d578063a9545a1014610489578063addc9bd0146104a7578063b4eae1cb146104c3576101cd565b806375417da6146104015780637d83cef314610431578063868ecbb01461044f576101cd565b806319163a0f1161016f57806343225acd1161014957806343225acd1461036557806352391fcd146103955780635a14b650146103c55780636e9960c3146103e3576101cd565b806319163a0f146102d55780631dd7cecf146103055780632262b43b14610335576101cd565b80630c577db2116101ab5780630c577db21461024f5780630c80246a1461027f57806310ccbbc01461029b57806315037ce1146102b9576101cd565b80630743625a146101d15780630af4187d146102015780630b9dca6d14610231575b5f80fd5b6101eb60048036038101906101e69190611fce565b6105f1565b6040516101f89190612011565b60405180910390f35b61021b6004803603810190610216919061202a565b610692565b6040516102289190612011565b60405180910390f35b610239610715565b60405161024691906120c3565b60405180910390f35b61026960048036038101906102649190612218565b61073a565b6040516102769190612011565b60405180910390f35b6102996004803603810190610294919061229c565b610772565b005b6102a36108c8565b6040516102b09190612316565b60405180910390f35b6102d360048036038101906102ce919061232f565b6108ed565b005b6102ef60048036038101906102ea9190612218565b610df9565b6040516102fc9190612011565b60405180910390f35b61031f600480360381019061031a9190612218565b610e5c565b60405161032c9190612011565b60405180910390f35b61034f600480360381019061034a9190611fce565b610ebf565b60405161035c9190612011565b60405180910390f35b61037f600480360381019061037a919061235a565b610ed0565b60405161038c9190612011565b60405180910390f35b6103af60048036038101906103aa919061235a565b610efd565b6040516103bc91906123c1565b60405180910390f35b6103cd610f45565b6040516103da9190612011565b60405180910390f35b6103eb610f4b565b6040516103f891906123e9565b60405180910390f35b61041b60048036038101906104169190611fce565b610f72565b6040516104289190612011565b60405180910390f35b6104396111c7565b6040516104469190612011565b60405180910390f35b6104576111cd565b6040516104649190612422565b60405180910390f35b6104876004803603810190610482919061232f565b6111f2565b005b6104916112ce565b60405161049e919061245b565b60405180910390f35b6104c160048036038101906104bc919061232f565b6112f3565b005b6104cb61181b565b6040516104d89190612011565b60405180910390f35b6104fb60048036038101906104f6919061229c565b611821565b005b610505611977565b6040516105129190612494565b60405180910390f35b6105356004803603810190610530919061235a565b61199c565b6040516105429190612011565b60405180910390f35b6105656004803603810190610560919061264f565b6119c9565b005b61056f611ecf565b60405161057c91906126e5565b60405180910390f35b61059f600480360381019061059a919061235a565b611ef4565b6040516105ac9190612011565b60405180910390f35b6105bd611f1b565b6040516105ca919061271e565b60405180910390f35b6105db611f40565b6040516105e891906123e9565b60405180910390f35b5f60015f9054906101000a900473ffffffffffffffffffffffffffffffffffffffff1673ffffffffffffffffffffffffffffffffffffffff166370a08231836040518263ffffffff1660e01b815260040161064c91906123e9565b602060405180830381865afa158015610667573d5f803e3d5ffd5b505050506040513d601f19601f8201168201806040525081019061068b919061274b565b9050919050565b5f8273ffffffffffffffffffffffffffffffffffffffff1663dd62ed3e83306040518363ffffffff1660e01b81526004016106ce929190612776565b602060405180830381865afa1580156106e9573d5f803e3d5ffd5b505050506040513d601f19601f8201168201806040525081019061070d919061274b565b905092915050565b60035f9054906101000a900473ffffffffffffffffffffffffffffffffffffffff1681565b600d602052815f5260405f20818051602081018201805184825260208301602085012081835280955050505050505f91509150505481565b5f8054906101000a900473ffffffffffffffffffffffffffffffffffffffff1673ffffffffffffffffffffffffffffffffffffffff163373ffffffffffffffffffffffffffffffffffffffff16146107ff576040517f08c379a00000000000000000000000000000000000000000000000000000000081526004016107f69061281d565b60405180910390fd5b5f8111610841576040517f08c379a000000000000000000000000000000000000000000000000000000000815260040161083890612885565b60405180910390fd5b5f600b8360405161085291906128f5565b908152602001604051809103902054116108a1576040517f08c379a000000000000000000000000000000000000000000000000000000000815260040161089890612955565b60405180910390fd5b80600b836040516108b291906128f5565b9081526020016040518091039020819055505050565b60055f9054906101000a900473ffffffffffffffffffffffffffffffffffffffff1681565b5f6064600e54836108fe91906129a0565b6109089190612a0e565b90508061091433610f72565b1015610955576040517f08c379a000000000000000000000000000000000000000000000000000000000815260040161094c90612aae565b60405180910390fd5b5f6127106008548461096791906129a0565b6109719190612a0e565b90505f81846109809190612acc565b90508060015f9054906101000a900473ffffffffffffffffffffffffffffffffffffffff1673ffffffffffffffffffffffffffffffffffffffff166370a08231336040518263ffffffff1660e01b81526004016109dd91906123e9565b602060405180830381865afa1580156109f8573d5f803e3d5ffd5b505050506040513d601f19601f82011682018060405250810190610a1c919061274b565b1015610a5d576040517f08c379a0000000000000000000000000000000000000000000000000000000008152600401610a5490612b49565b60405180910390fd5b60015f9054906101000a900473ffffffffffffffffffffffffffffffffffffffff1673ffffffffffffffffffffffffffffffffffffffff16639dc29fac33866040518363ffffffff1660e01b8152600401610ab9929190612b67565b5f604051808303815f87803b158015610ad0575f80fd5b505af1158015610ae2573d5f803e3d5ffd5b505050505f8390505f6040518060c001604052806040518060400160405280600381526020017f434e59000000000000000000000000000000000000000000000000000000000081525081526020016040518060400160405280600381526020017f525542000000000000000000000000000000000000000000000000000000000081525081526020016040518060400160405280600381526020017f494e52000000000000000000000000000000000000000000000000000000000081525081526020016040518060400160405280600381526020017f42524c000000000000000000000000000000000000000000000000000000000081525081526020016040518060400160405280600381526020017f5a4152000000000000000000000000000000000000000000000000000000000081525081526020016040518060400160405280600381526020017f555344000000000000000000000000000000000000000000000000000000000081525081525090505f5b6006811015610dae575f828260068110610c7757610c76612b8e565b5b602002015190505f600d5f3373ffffffffffffffffffffffffffffffffffffffff1673ffffffffffffffffffffffffffffffffffffffff1681526020019081526020015f2082604051610cca91906128f5565b90815260200160405180910390205490505f811115610d9f575f610ced33610f72565b8683610cf991906129a0565b610d039190612a0e565b905081811115610d11578190505b80600d5f3373ffffffffffffffffffffffffffffffffffffffff1673ffffffffffffffffffffffffffffffffffffffff1681526020019081526020015f2084604051610d5d91906128f5565b90815260200160405180910390205f828254610d799190612bbb565b925050819055508086610d8c9190612bbb565b95505f8603610d9d57505050610dae565b505b50508080600101915050610c5a565b505f8214610df1576040517f08c379a0000000000000000000000000000000000000000000000000000000008152600401610de890612c5e565b60405180910390fd5b505050505050565b5f600d5f8473ffffffffffffffffffffffffffffffffffffffff1673ffffffffffffffffffffffffffffffffffffffff1681526020019081526020015f2082604051610e4591906128f5565b908152602001604051809103902054905092915050565b5f600d5f8473ffffffffffffffffffffffffffffffffffffffff1673ffffffffffffffffffffffffffffffffffffffff1681526020019081526020015f2082604051610ea891906128f5565b908152602001604051809103902054905092915050565b5f610ec982610f72565b9050919050565b600b818051602081018201805184825260208301602085012081835280955050505050505f915090505481565b600a818051602081018201805184825260208301602085012081835280955050505050505f915054906101000a900473ffffffffffffffffffffffffffffffffffffffff1681565b60095481565b5f805f9054906101000a900473ffffffffffffffffffffffffffffffffffffffff16905090565b5f806040518060c001604052806040518060400160405280600381526020017f434e59000000000000000000000000000000000000000000000000000000000081525081526020016040518060400160405280600381526020017f525542000000000000000000000000000000000000000000000000000000000081525081526020016040518060400160405280600381526020017f494e52000000000000000000000000000000000000000000000000000000000081525081526020016040518060400160405280600381526020017f42524c000000000000000000000000000000000000000000000000000000000081525081526020016040518060400160405280600381526020017f5a4152000000000000000000000000000000000000000000000000000000000081525081526020016040518060400160405280600381526020017f555344000000000000000000000000000000000000000000000000000000000081525081525090505f5b60068110156111c0575f828260068110611100576110ff612b8e565b5b602002015190505f600d5f8773ffffffffffffffffffffffffffffffffffffffff1673ffffffffffffffffffffffffffffffffffffffff1681526020019081526020015f208260405161115391906128f5565b90815260200160405180910390205490505f8111156111b1576103e8600b8360405161117f91906128f5565b9081526020016040518091039020548261119991906129a0565b6111a39190612a0e565b856111ae9190612acc565b94505b505080806001019150506110e3565b5050919050565b60085481565b60015f9054906101000a900473ffffffffffffffffffffffffffffffffffffffff1681565b5f8054906101000a900473ffffffffffffffffffffffffffffffffffffffff1673ffffffffffffffffffffffffffffffffffffffff163373ffffffffffffffffffffffffffffffffffffffff161461127f576040517f08c379a00000000000000000000000000000000000000000000000000000000081526004016112769061281d565b60405180910390fd5b6127108111156112c4576040517f08c379a00000000000000000000000000000000000000000000000000000000081526004016112bb90612cc6565b60405180910390fd5b8060088190555050565b60025f9054906101000a900473ffffffffffffffffffffffffffffffffffffffff1681565b5f6064600e548361130491906129a0565b61130e9190612a0e565b90505f61131a33610f72565b90508181101561135f576040517f08c379a000000000000000000000000000000000000000000000000000000000815260040161135690612aae565b60405180910390fd5b60015f9054906101000a900473ffffffffffffffffffffffffffffffffffffffff1673ffffffffffffffffffffffffffffffffffffffff16639dc29fac33856040518363ffffffff1660e01b81526004016113bb929190612b67565b5f604051808303815f87803b1580156113d2575f80fd5b505af11580156113e4573d5f803e3d5ffd5b505050505f6040518060c001604052806040518060400160405280600381526020017f434e59000000000000000000000000000000000000000000000000000000000081525081526020016040518060400160405280600381526020017f525542000000000000000000000000000000000000000000000000000000000081525081526020016040518060400160405280600381526020017f494e52000000000000000000000000000000000000000000000000000000000081525081526020016040518060400160405280600381526020017f42524c000000000000000000000000000000000000000000000000000000000081525081526020016040518060400160405280600381526020017f5a4152000000000000000000000000000000000000000000000000000000000081525081526020016040518060400160405280600381526020017f555344000000000000000000000000000000000000000000000000000000000081525081525090505f8390505f805f5b60068110156117cf575f85826006811061157b5761157a612b8e565b5b602002015190505f600d5f3373ffffffffffffffffffffffffffffffffffffffff1673ffffffffffffffffffffffffffffffffffffffff1681526020019081526020015f20826040516115ce91906128f5565b90815260200160405180910390205490505f8111156117c0576103e8600b836040516115fa91906128f5565b9081526020016040518091039020548261161491906129a0565b61161e9190612a0e565b945087818761162d91906129a0565b6116379190612a0e565b935080841115611645578093505b6103e8600b8360405161165891906128f5565b9081526020016040518091039020548561167291906129a0565b61167c9190612a0e565b866116879190612bbb565b955083600d5f3373ffffffffffffffffffffffffffffffffffffffff1673ffffffffffffffffffffffffffffffffffffffff1681526020019081526020015f20836040516116d591906128f5565b90815260200160405180910390205f8282546116f19190612bbb565b92505081905550600a8260405161170891906128f5565b90815260200160405180910390205f9054906101000a900473ffffffffffffffffffffffffffffffffffffffff1673ffffffffffffffffffffffffffffffffffffffff1663a9059cbb33866040518363ffffffff1660e01b8152600401611770929190612b67565b6020604051808303815f875af115801561178c573d5f803e3d5ffd5b505050506040513d601f19601f820116820180604052508101906117b09190612d19565b505f86036117bf5750506117cf565b5b5050808060010191505061155e565b505f8314611812576040517f08c379a000000000000000000000000000000000000000000000000000000000815260040161180990612d8e565b60405180910390fd5b50505050505050565b600e5481565b5f8054906101000a900473ffffffffffffffffffffffffffffffffffffffff1673ffffffffffffffffffffffffffffffffffffffff163373ffffffffffffffffffffffffffffffffffffffff16146118ae576040517f08c379a00000000000000000000000000000000000000000000000000000000081526004016118a59061281d565b60405180910390fd5b5f81116118f0576040517f08c379a00000000000000000000000000000000000000000000000000000000081526004016118e790612885565b60405180910390fd5b5f600b8360405161190191906128f5565b90815260200160405180910390205411611950576040517f08c379a000000000000000000000000000000000000000000000000000000000815260040161194790612955565b60405180910390fd5b80600c8360405161196191906128f5565b9081526020016040518091039020819055505050565b60065f9054906101000a900473ffffffffffffffffffffffffffffffffffffffff1681565b600c818051602081018201805184825260208301602085012081835280955050505050505f915090505481565b8051825114611a0d576040517f08c379a0000000000000000000000000000000000000000000000000000000008152600401611a0490612df6565b60405180910390fd5b5f805b8351811015611de0575f848281518110611a2d57611a2c612b8e565b5b602002602001015190505f848381518110611a4b57611a4a612b8e565b5b602002602001015190505f600b83604051611a6691906128f5565b90815260200160405180910390205411611ab5576040517f08c379a0000000000000000000000000000000000000000000000000000000008152600401611aac90612955565b60405180910390fd5b5f73ffffffffffffffffffffffffffffffffffffffff16600a83604051611adc91906128f5565b90815260200160405180910390205f9054906101000a900473ffffffffffffffffffffffffffffffffffffffff1673ffffffffffffffffffffffffffffffffffffffff1603611b60576040517f08c379a0000000000000000000000000000000000000000000000000000000008152600401611b5790612e5e565b60405180910390fd5b5f600a83604051611b7191906128f5565b90815260200160405180910390205f9054906101000a900473ffffffffffffffffffffffffffffffffffffffff1673ffffffffffffffffffffffffffffffffffffffff1663dd62ed3e33306040518363ffffffff1660e01b8152600401611bd9929190612776565b602060405180830381865afa158015611bf4573d5f803e3d5ffd5b505050506040513d601f19601f82011682018060405250810190611c18919061274b565b905081811015611c5d576040517f08c379a0000000000000000000000000000000000000000000000000000000008152600401611c5490612ec6565b60405180910390fd5b600a83604051611c6d91906128f5565b90815260200160405180910390205f9054906101000a900473ffffffffffffffffffffffffffffffffffffffff1673ffffffffffffffffffffffffffffffffffffffff166323b872dd3330856040518463ffffffff1660e01b8152600401611cd793929190612ee4565b6020604051808303815f875af1158015611cf3573d5f803e3d5ffd5b505050506040513d601f19601f82011682018060405250810190611d179190612d19565b505f6103e8600b85604051611d2c91906128f5565b90815260200160405180910390205484611d4691906129a0565b611d509190612a0e565b90508086611d5e9190612acc565b955082600d5f3373ffffffffffffffffffffffffffffffffffffffff1673ffffffffffffffffffffffffffffffffffffffff1681526020019081526020015f2085604051611dac91906128f5565b90815260200160405180910390205f828254611dc89190612acc565b92505081905550505050508080600101915050611a10565b505f600e54606483611df291906129a0565b611dfc9190612a0e565b90505f8111611e40576040517f08c379a0000000000000000000000000000000000000000000000000000000008152600401611e3790612f89565b60405180910390fd5b60015f9054906101000a900473ffffffffffffffffffffffffffffffffffffffff1673ffffffffffffffffffffffffffffffffffffffff166340c10f1933836040518363ffffffff1660e01b8152600401611e9c929190612b67565b5f604051808303815f87803b158015611eb3575f80fd5b505af1158015611ec5573d5f803e3d5ffd5b5050505050505050565b60045f9054906101000a900473ffffffffffffffffffffffffffffffffffffffff1681565b5f600b82604051611f0591906128f5565b9081526020016040518091039020549050919050565b60075f9054906101000a900473ffffffffffffffffffffffffffffffffffffffff1681565b5f8054906101000a900473ffffffffffffffffffffffffffffffffffffffff1681565b5f604051905090565b5f80fd5b5f80fd5b5f73ffffffffffffffffffffffffffffffffffffffff82169050919050565b5f611f9d82611f74565b9050919050565b611fad81611f93565b8114611fb7575f80fd5b50565b5f81359050611fc881611fa4565b92915050565b5f60208284031215611fe357611fe2611f6c565b5b5f611ff084828501611fba565b91505092915050565b5f819050919050565b61200b81611ff9565b82525050565b5f6020820190506120245f830184612002565b92915050565b5f80604083850312156120405761203f611f6c565b5b5f61204d85828601611fba565b925050602061205e85828601611fba565b9150509250929050565b5f819050919050565b5f61208b61208661208184611f74565b612068565b611f74565b9050919050565b5f61209c82612071565b9050919050565b5f6120ad82612092565b9050919050565b6120bd816120a3565b82525050565b5f6020820190506120d65f8301846120b4565b92915050565b5f80fd5b5f80fd5b5f601f19601f8301169050919050565b7f4e487b71000000000000000000000000000000000000000000000000000000005f52604160045260245ffd5b61212a826120e4565b810181811067ffffffffffffffff82111715612149576121486120f4565b5b80604052505050565b5f61215b611f63565b90506121678282612121565b919050565b5f67ffffffffffffffff821115612186576121856120f4565b5b61218f826120e4565b9050602081019050919050565b828183375f83830152505050565b5f6121bc6121b78461216c565b612152565b9050828152602081018484840111156121d8576121d76120e0565b5b6121e384828561219c565b509392505050565b5f82601f8301126121ff576121fe6120dc565b5b813561220f8482602086016121aa565b91505092915050565b5f806040838503121561222e5761222d611f6c565b5b5f61223b85828601611fba565b925050602083013567ffffffffffffffff81111561225c5761225b611f70565b5b612268858286016121eb565b9150509250929050565b61227b81611ff9565b8114612285575f80fd5b50565b5f8135905061229681612272565b92915050565b5f80604083850312156122b2576122b1611f6c565b5b5f83013567ffffffffffffffff8111156122cf576122ce611f70565b5b6122db858286016121eb565b92505060206122ec85828601612288565b9150509250929050565b5f61230082612092565b9050919050565b612310816122f6565b82525050565b5f6020820190506123295f830184612307565b92915050565b5f6020828403121561234457612343611f6c565b5b5f61235184828501612288565b91505092915050565b5f6020828403121561236f5761236e611f6c565b5b5f82013567ffffffffffffffff81111561238c5761238b611f70565b5b612398848285016121eb565b91505092915050565b5f6123ab82612092565b9050919050565b6123bb816123a1565b82525050565b5f6020820190506123d45f8301846123b2565b92915050565b6123e381611f93565b82525050565b5f6020820190506123fc5f8301846123da565b92915050565b5f61240c82612092565b9050919050565b61241c81612402565b82525050565b5f6020820190506124355f830184612413565b92915050565b5f61244582612092565b9050919050565b6124558161243b565b82525050565b5f60208201905061246e5f83018461244c565b92915050565b5f61247e82612092565b9050919050565b61248e81612474565b82525050565b5f6020820190506124a75f830184612485565b92915050565b5f67ffffffffffffffff8211156124c7576124c66120f4565b5b602082029050602081019050919050565b5f80fd5b5f6124ee6124e9846124ad565b612152565b90508083825260208201905060208402830185811115612511576125106124d8565b5b835b8181101561255857803567ffffffffffffffff811115612536576125356120dc565b5b80860161254389826121eb565b85526020850194505050602081019050612513565b5050509392505050565b5f82601f830112612576576125756120dc565b5b81356125868482602086016124dc565b91505092915050565b5f67ffffffffffffffff8211156125a9576125a86120f4565b5b602082029050602081019050919050565b5f6125cc6125c78461258f565b612152565b905080838252602082019050602084028301858111156125ef576125ee6124d8565b5b835b8181101561261857806126048882612288565b8452602084019350506020810190506125f1565b5050509392505050565b5f82601f830112612636576126356120dc565b5b81356126468482602086016125ba565b91505092915050565b5f806040838503121561266557612664611f6c565b5b5f83013567ffffffffffffffff81111561268257612681611f70565b5b61268e85828601612562565b925050602083013567ffffffffffffffff8111156126af576126ae611f70565b5b6126bb85828601612622565b9150509250929050565b5f6126cf82612092565b9050919050565b6126df816126c5565b82525050565b5f6020820190506126f85f8301846126d6565b92915050565b5f61270882612092565b9050919050565b612718816126fe565b82525050565b5f6020820190506127315f83018461270f565b92915050565b5f8151905061274581612272565b92915050565b5f602082840312156127605761275f611f6c565b5b5f61276d84828501612737565b91505092915050565b5f6040820190506127895f8301856123da565b61279660208301846123da565b9392505050565b5f82825260208201905092915050565b7f4f6e6c79206665652041646d696e2063616e20757064617465207468652066655f8201527f6520726174650000000000000000000000000000000000000000000000000000602082015250565b5f61280760268361279d565b9150612812826127ad565b604082019050919050565b5f6020820190508181035f830152612834816127fb565b9050919050565b7f52617465206d7573742062652067726561746572207468616e203000000000005f82015250565b5f61286f601b8361279d565b915061287a8261283b565b602082019050919050565b5f6020820190508181035f83015261289c81612863565b9050919050565b5f81519050919050565b5f81905092915050565b8281835e5f83830152505050565b5f6128cf826128a3565b6128d981856128ad565b93506128e98185602086016128b7565b80840191505092915050565b5f61290082846128c5565b915081905092915050565b7f556e737570706f727465642043424443000000000000000000000000000000005f82015250565b5f61293f60108361279d565b915061294a8261290b565b602082019050919050565b5f6020820190508181035f83015261296c81612933565b9050919050565b7f4e487b71000000000000000000000000000000000000000000000000000000005f52601160045260245ffd5b5f6129aa82611ff9565b91506129b583611ff9565b92508282026129c381611ff9565b915082820484148315176129da576129d9612973565b5b5092915050565b7f4e487b71000000000000000000000000000000000000000000000000000000005f52601260045260245ffd5b5f612a1882611ff9565b9150612a2383611ff9565b925082612a3357612a326129e1565b5b828204905092915050565b7f496e73756666696369656e7420636f6c6c61746572616c20746f2072656465655f8201527f6d00000000000000000000000000000000000000000000000000000000000000602082015250565b5f612a9860218361279d565b9150612aa382612a3e565b604082019050919050565b5f6020820190508181035f830152612ac581612a8c565b9050919050565b5f612ad682611ff9565b9150612ae183611ff9565b9250828201905080821115612af957612af8612973565b5b92915050565b7f496e73756666696369656e742042524943532062616c616e63650000000000005f82015250565b5f612b33601a8361279d565b9150612b3e82612aff565b602082019050919050565b5f6020820190508181035f830152612b6081612b27565b9050919050565b5f604082019050612b7a5f8301856123da565b612b876020830184612002565b9392505050565b7f4e487b71000000000000000000000000000000000000000000000000000000005f52603260045260245ffd5b5f612bc582611ff9565b9150612bd083611ff9565b9250828203905081811115612be857612be7612973565b5b92915050565b7f4661696c656420746f2066756c6c792072657475726e20636f6c6c61746572615f8201527f6c00000000000000000000000000000000000000000000000000000000000000602082015250565b5f612c4860218361279d565b9150612c5382612bee565b604082019050919050565b5f6020820190508181035f830152612c7581612c3c565b9050919050565b7f4665652072617465206d757374206e6f742065786365656420313030250000005f82015250565b5f612cb0601d8361279d565b9150612cbb82612c7c565b602082019050919050565b5f6020820190508181035f830152612cdd81612ca4565b9050919050565b5f8115159050919050565b612cf881612ce4565b8114612d02575f80fd5b50565b5f81519050612d1381612cef565b92915050565b5f60208284031215612d2e57612d2d611f6c565b5b5f612d3b84828501612d05565b91505092915050565b7f4661696c656420746f2072657475726e2066756c6c20636f6c6c61746572616c5f82015250565b5f612d7860208361279d565b9150612d8382612d44565b602082019050919050565b5f6020820190508181035f830152612da581612d6c565b9050919050565b7f4d69736d6174636865642073796d626f6c7320616e6420616d6f756e747300005f82015250565b5f612de0601e8361279d565b9150612deb82612dac565b602082019050919050565b5f6020820190508181035f830152612e0d81612dd4565b9050919050565b7f556e737570706f72746564204342444320746f6b656e000000000000000000005f82015250565b5f612e4860168361279d565b9150612e5382612e14565b602082019050919050565b5f6020820190508181035f830152612e7581612e3c565b9050919050565b7f496e73756666696369656e7420616c6c6f77616e636520666f7220746f6b656e5f82015250565b5f612eb060208361279d565b9150612ebb82612e7c565b602082019050919050565b5f6020820190508181035f830152612edd81612ea4565b9050919050565b5f606082019050612ef75f8301866123da565b612f0460208301856123da565b612f116040830184612002565b949350505050565b7f4e6f7420656e6f75676820636f6c6c61746572616c2076616c756520746f206d5f8201527f696e742042524943530000000000000000000000000000000000000000000000602082015250565b5f612f7360298361279d565b9150612f7e82612f19565b604082019050919050565b5f6020820190508181035f830152612fa081612f67565b905091905056fea2646970667358221220bbbfc894b7bc7ff01ea5307431038bf173c93e8668e12b17420a9fc4cf50b00464736f6c634300081a0033",
			"opcodes": "PUSH1 0x80 PUSH1 0x40 MSTORE PUSH1 0x32 PUSH1 0x8 SSTORE PUSH1 0x19 PUSH1 0x9 SSTORE PUSH1 0x96 PUSH1 0xE SSTORE CALLVALUE DUP1 ISZERO PUSH2 0x1E JUMPI PUSH0 DUP1 REVERT JUMPDEST POP PUSH1 0x40 MLOAD PUSH2 0x391D CODESIZE SUB DUP1 PUSH2 0x391D DUP4 CODECOPY DUP2 DUP2 ADD PUSH1 0x40 MSTORE DUP2 ADD SWAP1 PUSH2 0x40 SWAP2 SWAP1 PUSH2 0x658 JUMP JUMPDEST DUP7 PUSH1 0x1 PUSH0 PUSH2 0x100 EXP DUP2 SLOAD DUP2 PUSH20 0xFFFFFFFFFFFFFFFFFFFFFFFFFFFFFFFFFFFFFFFF MUL NOT AND SWAP1 DUP4 PUSH20 0xFFFFFFFFFFFFFFFFFFFFFFFFFFFFFFFFFFFFFFFF AND MUL OR SWAP1 SSTORE POP DUP6 PUSH1 0x2 PUSH0 PUSH2 0x100 EXP DUP2 SLOAD DUP2 PUSH20 0xFFFFFFFFFFFFFFFFFFFFFFFFFFFFFFFFFFFFFFFF MUL NOT AND SWAP1 DUP4 PUSH20 0xFFFFFFFFFFFFFFFFFFFFFFFFFFFFFFFFFFFFFFFF AND MUL OR SWAP1 SSTORE POP DUP5 PUSH1 0x3 PUSH0 PUSH2 0x100 EXP DUP2 SLOAD DUP2 PUSH20 0xFFFFFFFFFFFFFFFFFFFFFFFFFFFFFFFFFFFFFFFF MUL NOT AND SWAP1 DUP4 PUSH20 0xFFFFFFFFFFFFFFFFFFFFFFFFFFFFFFFFFFFFFFFF AND MUL OR SWAP1 SSTORE POP DUP4 PUSH1 0x4 PUSH0 PUSH2 0x100 EXP DUP2 SLOAD DUP2 PUSH20 0xFFFFFFFFFFFFFFFFFFFFFFFFFFFFFFFFFFFFFFFF MUL NOT AND SWAP1 DUP4 PUSH20 0xFFFFFFFFFFFFFFFFFFFFFFFFFFFFFFFFFFFFFFFF AND MUL OR SWAP1 SSTORE POP DUP3 PUSH1 0x5 PUSH0 PUSH2 0x100 EXP DUP2 SLOAD DUP2 PUSH20 0xFFFFFFFFFFFFFFFFFFFFFFFFFFFFFFFFFFFFFFFF MUL NOT AND SWAP1 DUP4 PUSH20 0xFFFFFFFFFFFFFFFFFFFFFFFFFFFFFFFFFFFFFFFF AND MUL OR SWAP1 SSTORE POP DUP2 PUSH1 0x6 PUSH0 PUSH2 0x100 EXP DUP2 SLOAD DUP2 PUSH20 0xFFFFFFFFFFFFFFFFFFFFFFFFFFFFFFFFFFFFFFFF MUL NOT AND SWAP1 DUP4 PUSH20 0xFFFFFFFFFFFFFFFFFFFFFFFFFFFFFFFFFFFFFFFF AND MUL OR SWAP1 SSTORE POP DUP1 PUSH1 0x7 PUSH0 PUSH2 0x100 EXP DUP2 SLOAD DUP2 PUSH20 0xFFFFFFFFFFFFFFFFFFFFFFFFFFFFFFFFFFFFFFFF MUL NOT AND SWAP1 DUP4 PUSH20 0xFFFFFFFFFFFFFFFFFFFFFFFFFFFFFFFFFFFFFFFF AND MUL OR SWAP1 SSTORE POP PUSH1 0x2 PUSH0 SWAP1 SLOAD SWAP1 PUSH2 0x100 EXP SWAP1 DIV PUSH20 0xFFFFFFFFFFFFFFFFFFFFFFFFFFFFFFFFFFFFFFFF AND PUSH1 0xA PUSH1 0x40 MLOAD PUSH2 0x230 SWAP1 PUSH2 0x749 JUMP JUMPDEST SWAP1 DUP2 MSTORE PUSH1 0x20 ADD PUSH1 0x40 MLOAD DUP1 SWAP2 SUB SWAP1 KECCAK256 PUSH0 PUSH2 0x100 EXP DUP2 SLOAD DUP2 PUSH20 0xFFFFFFFFFFFFFFFFFFFFFFFFFFFFFFFFFFFFFFFF MUL NOT AND SWAP1 DUP4 PUSH20 0xFFFFFFFFFFFFFFFFFFFFFFFFFFFFFFFFFFFFFFFF AND MUL OR SWAP1 SSTORE POP PUSH1 0x3 PUSH0 SWAP1 SLOAD SWAP1 PUSH2 0x100 EXP SWAP1 DIV PUSH20 0xFFFFFFFFFFFFFFFFFFFFFFFFFFFFFFFFFFFFFFFF AND PUSH1 0xA PUSH1 0x40 MLOAD PUSH2 0x2AB SWAP1 PUSH2 0x7A7 JUMP JUMPDEST SWAP1 DUP2 MSTORE PUSH1 0x20 ADD PUSH1 0x40 MLOAD DUP1 SWAP2 SUB SWAP1 KECCAK256 PUSH0 PUSH2 0x100 EXP DUP2 SLOAD DUP2 PUSH20 0xFFFFFFFFFFFFFFFFFFFFFFFFFFFFFFFFFFFFFFFF MUL NOT AND SWAP1 DUP4 PUSH20 0xFFFFFFFFFFFFFFFFFFFFFFFFFFFFFFFFFFFFFFFF AND MUL OR SWAP1 SSTORE POP PUSH1 0x4 PUSH0 SWAP1 SLOAD SWAP1 PUSH2 0x100 EXP SWAP1 DIV PUSH20 0xFFFFFFFFFFFFFFFFFFFFFFFFFFFFFFFFFFFFFFFF AND PUSH1 0xA PUSH1 0x40 MLOAD PUSH2 0x326 SWAP1 PUSH2 0x805 JUMP JUMPDEST SWAP1 DUP2 MSTORE PUSH1 0x20 ADD PUSH1 0x40 MLOAD DUP1 SWAP2 SUB SWAP1 KECCAK256 PUSH0 PUSH2 0x100 EXP DUP2 SLOAD DUP2 PUSH20 0xFFFFFFFFFFFFFFFFFFFFFFFFFFFFFFFFFFFFFFFF MUL NOT AND SWAP1 DUP4 PUSH20 0xFFFFFFFFFFFFFFFFFFFFFFFFFFFFFFFFFFFFFFFF AND MUL OR SWAP1 SSTORE POP PUSH1 0x5 PUSH0 SWAP1 SLOAD SWAP1 PUSH2 0x100 EXP SWAP1 DIV PUSH20 0xFFFFFFFFFFFFFFFFFFFFFFFFFFFFFFFFFFFFFFFF AND PUSH1 0xA PUSH1 0x40 MLOAD PUSH2 0x3A1 SWAP1 PUSH2 0x863 JUMP JUMPDEST SWAP1 DUP2 MSTORE PUSH1 0x20 ADD PUSH1 0x40 MLOAD DUP1 SWAP2 SUB SWAP1 KECCAK256 PUSH0 PUSH2 0x100 EXP DUP2 SLOAD DUP2 PUSH20 0xFFFFFFFFFFFFFFFFFFFFFFFFFFFFFFFFFFFFFFFF MUL NOT AND SWAP1 DUP4 PUSH20 0xFFFFFFFFFFFFFFFFFFFFFFFFFFFFFFFFFFFFFFFF AND MUL OR SWAP1 SSTORE POP PUSH1 0x6 PUSH0 SWAP1 SLOAD SWAP1 PUSH2 0x100 EXP SWAP1 DIV PUSH20 0xFFFFFFFFFFFFFFFFFFFFFFFFFFFFFFFFFFFFFFFF AND PUSH1 0xA PUSH1 0x40 MLOAD PUSH2 0x41C SWAP1 PUSH2 0x8C1 JUMP JUMPDEST SWAP1 DUP2 MSTORE PUSH1 0x20 ADD PUSH1 0x40 MLOAD DUP1 SWAP2 SUB SWAP1 KECCAK256 PUSH0 PUSH2 0x100 EXP DUP2 SLOAD DUP2 PUSH20 0xFFFFFFFFFFFFFFFFFFFFFFFFFFFFFFFFFFFFFFFF MUL NOT AND SWAP1 DUP4 PUSH20 0xFFFFFFFFFFFFFFFFFFFFFFFFFFFFFFFFFFFFFFFF AND MUL OR SWAP1 SSTORE POP PUSH1 0x7 PUSH0 SWAP1 SLOAD SWAP1 PUSH2 0x100 EXP SWAP1 DIV PUSH20 0xFFFFFFFFFFFFFFFFFFFFFFFFFFFFFFFFFFFFFFFF AND PUSH1 0xA PUSH1 0x40 MLOAD PUSH2 0x497 SWAP1 PUSH2 0x91F JUMP JUMPDEST SWAP1 DUP2 MSTORE PUSH1 0x20 ADD PUSH1 0x40 MLOAD DUP1 SWAP2 SUB SWAP1 KECCAK256 PUSH0 PUSH2 0x100 EXP DUP2 SLOAD DUP2 PUSH20 0xFFFFFFFFFFFFFFFFFFFFFFFFFFFFFFFFFFFFFFFF MUL NOT AND SWAP1 DUP4 PUSH20 0xFFFFFFFFFFFFFFFFFFFFFFFFFFFFFFFFFFFFFFFF AND MUL OR SWAP1 SSTORE POP CALLER PUSH0 DUP1 PUSH2 0x100 EXP DUP2 SLOAD DUP2 PUSH20 0xFFFFFFFFFFFFFFFFFFFFFFFFFFFFFFFFFFFFFFFF MUL NOT AND SWAP1 DUP4 PUSH20 0xFFFFFFFFFFFFFFFFFFFFFFFFFFFFFFFFFFFFFFFF AND MUL OR SWAP1 SSTORE POP PUSH1 0x8C PUSH1 0xB PUSH1 0x40 MLOAD PUSH2 0x531 SWAP1 PUSH2 0x863 JUMP JUMPDEST SWAP1 DUP2 MSTORE PUSH1 0x20 ADD PUSH1 0x40 MLOAD DUP1 SWAP2 SUB SWAP1 KECCAK256 DUP2 SWAP1 SSTORE POP PUSH1 0xA PUSH1 0xB PUSH1 0x40 MLOAD PUSH2 0x553 SWAP1 PUSH2 0x7A7 JUMP JUMPDEST SWAP1 DUP2 MSTORE PUSH1 0x20 ADD PUSH1 0x40 MLOAD DUP1 SWAP2 SUB SWAP1 KECCAK256 DUP2 SWAP1 SSTORE POP PUSH1 0xC PUSH1 0xB PUSH1 0x40 MLOAD PUSH2 0x575 SWAP1 PUSH2 0x805 JUMP JUMPDEST SWAP1 DUP2 MSTORE PUSH1 0x20 ADD PUSH1 0x40 MLOAD DUP1 SWAP2 SUB SWAP1 KECCAK256 DUP2 SWAP1 SSTORE POP PUSH1 0xC8 PUSH1 0xB PUSH1 0x40 MLOAD PUSH2 0x597 SWAP1 PUSH2 0x749 JUMP JUMPDEST SWAP1 DUP2 MSTORE PUSH1 0x20 ADD PUSH1 0x40 MLOAD DUP1 SWAP2 SUB SWAP1 KECCAK256 DUP2 SWAP1 SSTORE POP PUSH1 0x32 PUSH1 0xB PUSH1 0x40 MLOAD PUSH2 0x5B9 SWAP1 PUSH2 0x8C1 JUMP JUMPDEST SWAP1 DUP2 MSTORE PUSH1 0x20 ADD PUSH1 0x40 MLOAD DUP1 SWAP2 SUB SWAP1 KECCAK256 DUP2 SWAP1 SSTORE POP PUSH2 0x3E8 PUSH1 0xB PUSH1 0x40 MLOAD PUSH2 0x5DC SWAP1 PUSH2 0x91F JUMP JUMPDEST SWAP1 DUP2 MSTORE PUSH1 0x20 ADD PUSH1 0x40 MLOAD DUP1 SWAP2 SUB SWAP1 KECCAK256 DUP2 SWAP1 SSTORE POP POP POP POP POP POP POP POP PUSH2 0x933 JUMP JUMPDEST PUSH0 DUP1 REVERT JUMPDEST PUSH0 PUSH20 0xFFFFFFFFFFFFFFFFFFFFFFFFFFFFFFFFFFFFFFFF DUP3 AND SWAP1 POP SWAP2 SWAP1 POP JUMP JUMPDEST PUSH0 PUSH2 0x627 DUP3 PUSH2 0x5FE JUMP JUMPDEST SWAP1 POP SWAP2 SWAP1 POP JUMP JUMPDEST PUSH2 0x637 DUP2 PUSH2 0x61D JUMP JUMPDEST DUP2 EQ PUSH2 0x641 JUMPI PUSH0 DUP1 REVERT JUMPDEST POP JUMP JUMPDEST PUSH0 DUP2 MLOAD SWAP1 POP PUSH2 0x652 DUP2 PUSH2 0x62E JUMP JUMPDEST SWAP3 SWAP2 POP POP JUMP JUMPDEST PUSH0 DUP1 PUSH0 DUP1 PUSH0 DUP1 PUSH0 PUSH1 0xE0 DUP9 DUP11 SUB SLT ISZERO PUSH2 0x673 JUMPI PUSH2 0x672 PUSH2 0x5FA JUMP JUMPDEST JUMPDEST PUSH0 PUSH2 0x680 DUP11 DUP3 DUP12 ADD PUSH2 0x644 JUMP JUMPDEST SWAP8 POP POP PUSH1 0x20 PUSH2 0x691 DUP11 DUP3 DUP12 ADD PUSH2 0x644 JUMP JUMPDEST SWAP7 POP POP PUSH1 0x40 PUSH2 0x6A2 DUP11 DUP3 DUP12 ADD PUSH2 0x644 JUMP JUMPDEST SWAP6 POP POP PUSH1 0x60 PUSH2 0x6B3 DUP11 DUP3 DUP12 ADD PUSH2 0x644 JUMP JUMPDEST SWAP5 POP POP PUSH1 0x80 PUSH2 0x6C4 DUP11 DUP3 DUP12 ADD PUSH2 0x644 JUMP JUMPDEST SWAP4 POP POP PUSH1 0xA0 PUSH2 0x6D5 DUP11 DUP3 DUP12 ADD PUSH2 0x644 JUMP JUMPDEST SWAP3 POP POP PUSH1 0xC0 PUSH2 0x6E6 DUP11 DUP3 DUP12 ADD PUSH2 0x644 JUMP JUMPDEST SWAP2 POP POP SWAP3 SWAP6 SWAP9 SWAP2 SWAP5 SWAP8 POP SWAP3 SWAP6 POP JUMP JUMPDEST PUSH0 DUP2 SWAP1 POP SWAP3 SWAP2 POP POP JUMP JUMPDEST PUSH32 0x42524C0000000000000000000000000000000000000000000000000000000000 PUSH0 DUP3 ADD MSTORE POP JUMP JUMPDEST PUSH0 PUSH2 0x733 PUSH1 0x3 DUP4 PUSH2 0x6F5 JUMP JUMPDEST SWAP2 POP PUSH2 0x73E DUP3 PUSH2 0x6FF JUMP JUMPDEST PUSH1 0x3 DUP3 ADD SWAP1 POP SWAP2 SWAP1 POP JUMP JUMPDEST PUSH0 PUSH2 0x753 DUP3 PUSH2 0x727 JUMP JUMPDEST SWAP2 POP DUP2 SWAP1 POP SWAP2 SWAP1 POP JUMP JUMPDEST PUSH32 0x5255420000000000000000000000000000000000000000000000000000000000 PUSH0 DUP3 ADD MSTORE POP JUMP JUMPDEST PUSH0 PUSH2 0x791 PUSH1 0x3 DUP4 PUSH2 0x6F5 JUMP JUMPDEST SWAP2 POP PUSH2 0x79C DUP3 PUSH2 0x75D JUMP JUMPDEST PUSH1 0x3 DUP3 ADD SWAP1 POP SWAP2 SWAP1 POP JUMP JUMPDEST PUSH0 PUSH2 0x7B1 DUP3 PUSH2 0x785 JUMP JUMPDEST SWAP2 POP DUP2 SWAP1 POP SWAP2 SWAP1 POP JUMP JUMPDEST PUSH32 0x494E520000000000000000000000000000000000000000000000000000000000 PUSH0 DUP3 ADD MSTORE POP JUMP JUMPDEST PUSH0 PUSH2 0x7EF PUSH1 0x3 DUP4 PUSH2 0x6F5 JUMP JUMPDEST SWAP2 POP PUSH2 0x7FA DUP3 PUSH2 0x7BB JUMP JUMPDEST PUSH1 0x3 DUP3 ADD SWAP1 POP SWAP2 SWAP1 POP JUMP JUMPDEST PUSH0 PUSH2 0x80F DUP3 PUSH2 0x7E3 JUMP JUMPDEST SWAP2 POP DUP2 SWAP1 POP SWAP2 SWAP1 POP JUMP JUMPDEST PUSH32 0x434E590000000000000000000000000000000000000000000000000000000000 PUSH0 DUP3 ADD MSTORE POP JUMP JUMPDEST PUSH0 PUSH2 0x84D PUSH1 0x3 DUP4 PUSH2 0x6F5 JUMP JUMPDEST SWAP2 POP PUSH2 0x858 DUP3 PUSH2 0x819 JUMP JUMPDEST PUSH1 0x3 DUP3 ADD SWAP1 POP SWAP2 SWAP1 POP JUMP JUMPDEST PUSH0 PUSH2 0x86D DUP3 PUSH2 0x841 JUMP JUMPDEST SWAP2 POP DUP2 SWAP1 POP SWAP2 SWAP1 POP JUMP JUMPDEST PUSH32 0x5A41520000000000000000000000000000000000000000000000000000000000 PUSH0 DUP3 ADD MSTORE POP JUMP JUMPDEST PUSH0 PUSH2 0x8AB PUSH1 0x3 DUP4 PUSH2 0x6F5 JUMP JUMPDEST SWAP2 POP PUSH2 0x8B6 DUP3 PUSH2 0x877 JUMP JUMPDEST PUSH1 0x3 DUP3 ADD SWAP1 POP SWAP2 SWAP1 POP JUMP JUMPDEST PUSH0 PUSH2 0x8CB DUP3 PUSH2 0x89F JUMP JUMPDEST SWAP2 POP DUP2 SWAP1 POP SWAP2 SWAP1 POP JUMP JUMPDEST PUSH32 0x5553440000000000000000000000000000000000000000000000000000000000 PUSH0 DUP3 ADD MSTORE POP JUMP JUMPDEST PUSH0 PUSH2 0x909 PUSH1 0x3 DUP4 PUSH2 0x6F5 JUMP JUMPDEST SWAP2 POP PUSH2 0x914 DUP3 PUSH2 0x8D5 JUMP JUMPDEST PUSH1 0x3 DUP3 ADD SWAP1 POP SWAP2 SWAP1 POP JUMP JUMPDEST PUSH0 PUSH2 0x929 DUP3 PUSH2 0x8FD JUMP JUMPDEST SWAP2 POP DUP2 SWAP1 POP SWAP2 SWAP1 POP JUMP JUMPDEST PUSH2 0x2FDD DUP1 PUSH2 0x940 PUSH0 CODECOPY PUSH0 RETURN INVALID PUSH1 0x80 PUSH1 0x40 MSTORE CALLVALUE DUP1 ISZERO PUSH2 0xF JUMPI PUSH0 DUP1 REVERT JUMPDEST POP PUSH1 0x4 CALLDATASIZE LT PUSH2 0x1CD JUMPI PUSH0 CALLDATALOAD PUSH1 0xE0 SHR DUP1 PUSH4 0x75417DA6 GT PUSH2 0x102 JUMPI DUP1 PUSH4 0xBE2A0174 GT PUSH2 0xA0 JUMPI DUP1 PUSH4 0xE85017D6 GT PUSH2 0x6F JUMPI DUP1 PUSH4 0xE85017D6 EQ PUSH2 0x567 JUMPI DUP1 PUSH4 0xF4B54314 EQ PUSH2 0x585 JUMPI DUP1 PUSH4 0xF897A22B EQ PUSH2 0x5B5 JUMPI DUP1 PUSH4 0xFC6F9468 EQ PUSH2 0x5D3 JUMPI PUSH2 0x1CD JUMP JUMPDEST DUP1 PUSH4 0xBE2A0174 EQ PUSH2 0x4E1 JUMPI DUP1 PUSH4 0xDC0F957E EQ PUSH2 0x4FD JUMPI DUP1 PUSH4 0xE2895E97 EQ PUSH2 0x51B JUMPI DUP1 PUSH4 0xE5632DA4 EQ PUSH2 0x54B JUMPI PUSH2 0x1CD JUMP JUMPDEST DUP1 PUSH4 0x8C676A8E GT PUSH2 0xDC JUMPI DUP1 PUSH4 0x8C676A8E EQ PUSH2 0x46D JUMPI DUP1 PUSH4 0xA9545A10 EQ PUSH2 0x489 JUMPI DUP1 PUSH4 0xADDC9BD0 EQ PUSH2 0x4A7 JUMPI DUP1 PUSH4 0xB4EAE1CB EQ PUSH2 0x4C3 JUMPI PUSH2 0x1CD JUMP JUMPDEST DUP1 PUSH4 0x75417DA6 EQ PUSH2 0x401 JUMPI DUP1 PUSH4 0x7D83CEF3 EQ PUSH2 0x431 JUMPI DUP1 PUSH4 0x868ECBB0 EQ PUSH2 0x44F JUMPI PUSH2 0x1CD JUMP JUMPDEST DUP1 PUSH4 0x19163A0F GT PUSH2 0x16F JUMPI DUP1 PUSH4 0x43225ACD GT PUSH2 0x149 JUMPI DUP1 PUSH4 0x43225ACD EQ PUSH2 0x365 JUMPI DUP1 PUSH4 0x52391FCD EQ PUSH2 0x395 JUMPI DUP1 PUSH4 0x5A14B650 EQ PUSH2 0x3C5 JUMPI DUP1 PUSH4 0x6E9960C3 EQ PUSH2 0x3E3 JUMPI PUSH2 0x1CD JUMP JUMPDEST DUP1 PUSH4 0x19163A0F EQ PUSH2 0x2D5 JUMPI DUP1 PUSH4 0x1DD7CECF EQ PUSH2 0x305 JUMPI DUP1 PUSH4 0x2262B43B EQ PUSH2 0x335 JUMPI PUSH2 0x1CD JUMP JUMPDEST DUP1 PUSH4 0xC577DB2 GT PUSH2 0x1AB JUMPI DUP1 PUSH4 0xC577DB2 EQ PUSH2 0x24F JUMPI DUP1 PUSH4 0xC80246A EQ PUSH2 0x27F JUMPI DUP1 PUSH4 0x10CCBBC0 EQ PUSH2 0x29B JUMPI DUP1 PUSH4 0x15037CE1 EQ PUSH2 0x2B9 JUMPI PUSH2 0x1CD JUMP JUMPDEST DUP1 PUSH4 0x743625A EQ PUSH2 0x1D1 JUMPI DUP1 PUSH4 0xAF4187D EQ PUSH2 0x201 JUMPI DUP1 PUSH4 0xB9DCA6D EQ PUSH2 0x231 JUMPI JUMPDEST PUSH0 DUP1 REVERT JUMPDEST PUSH2 0x1EB PUSH1 0x4 DUP1 CALLDATASIZE SUB DUP2 ADD SWAP1 PUSH2 0x1E6 SWAP2 SWAP1 PUSH2 0x1FCE JUMP JUMPDEST PUSH2 0x5F1 JUMP JUMPDEST PUSH1 0x40 MLOAD PUSH2 0x1F8 SWAP2 SWAP1 PUSH2 0x2011 JUMP JUMPDEST PUSH1 0x40 MLOAD DUP1 SWAP2 SUB SWAP1 RETURN JUMPDEST PUSH2 0x21B PUSH1 0x4 DUP1 CALLDATASIZE SUB DUP2 ADD SWAP1 PUSH2 0x216 SWAP2 SWAP1 PUSH2 0x202A JUMP JUMPDEST PUSH2 0x692 JUMP JUMPDEST PUSH1 0x40 MLOAD PUSH2 0x228 SWAP2 SWAP1 PUSH2 0x2011 JUMP JUMPDEST PUSH1 0x40 MLOAD DUP1 SWAP2 SUB SWAP1 RETURN JUMPDEST PUSH2 0x239 PUSH2 0x715 JUMP JUMPDEST PUSH1 0x40 MLOAD PUSH2 0x246 SWAP2 SWAP1 PUSH2 0x20C3 JUMP JUMPDEST PUSH1 0x40 MLOAD DUP1 SWAP2 SUB SWAP1 RETURN JUMPDEST PUSH2 0x269 PUSH1 0x4 DUP1 CALLDATASIZE SUB DUP2 ADD SWAP1 PUSH2 0x264 SWAP2 SWAP1 PUSH2 0x2218 JUMP JUMPDEST PUSH2 0x73A JUMP JUMPDEST PUSH1 0x40 MLOAD PUSH2 0x276 SWAP2 SWAP1 PUSH2 0x2011 JUMP JUMPDEST PUSH1 0x40 MLOAD DUP1 SWAP2 SUB SWAP1 RETURN JUMPDEST PUSH2 0x299 PUSH1 0x4 DUP1 CALLDATASIZE SUB DUP2 ADD SWAP1 PUSH2 0x294 SWAP2 SWAP1 PUSH2 0x229C JUMP JUMPDEST PUSH2 0x772 JUMP JUMPDEST STOP JUMPDEST PUSH2 0x2A3 PUSH2 0x8C8 JUMP JUMPDEST PUSH1 0x40 MLOAD PUSH2 0x2B0 SWAP2 SWAP1 PUSH2 0x2316 JUMP JUMPDEST PUSH1 0x40 MLOAD DUP1 SWAP2 SUB SWAP1 RETURN JUMPDEST PUSH2 0x2D3 PUSH1 0x4 DUP1 CALLDATASIZE SUB DUP2 ADD SWAP1 PUSH2 0x2CE SWAP2 SWAP1 PUSH2 0x232F JUMP JUMPDEST PUSH2 0x8ED JUMP JUMPDEST STOP JUMPDEST PUSH2 0x2EF PUSH1 0x4 DUP1 CALLDATASIZE SUB DUP2 ADD SWAP1 PUSH2 0x2EA SWAP2 SWAP1 PUSH2 0x2218 JUMP JUMPDEST PUSH2 0xDF9 JUMP JUMPDEST PUSH1 0x40 MLOAD PUSH2 0x2FC SWAP2 SWAP1 PUSH2 0x2011 JUMP JUMPDEST PUSH1 0x40 MLOAD DUP1 SWAP2 SUB SWAP1 RETURN JUMPDEST PUSH2 0x31F PUSH1 0x4 DUP1 CALLDATASIZE SUB DUP2 ADD SWAP1 PUSH2 0x31A SWAP2 SWAP1 PUSH2 0x2218 JUMP JUMPDEST PUSH2 0xE5C JUMP JUMPDEST PUSH1 0x40 MLOAD PUSH2 0x32C SWAP2 SWAP1 PUSH2 0x2011 JUMP JUMPDEST PUSH1 0x40 MLOAD DUP1 SWAP2 SUB SWAP1 RETURN JUMPDEST PUSH2 0x34F PUSH1 0x4 DUP1 CALLDATASIZE SUB DUP2 ADD SWAP1 PUSH2 0x34A SWAP2 SWAP1 PUSH2 0x1FCE JUMP JUMPDEST PUSH2 0xEBF JUMP JUMPDEST PUSH1 0x40 MLOAD PUSH2 0x35C SWAP2 SWAP1 PUSH2 0x2011 JUMP JUMPDEST PUSH1 0x40 MLOAD DUP1 SWAP2 SUB SWAP1 RETURN JUMPDEST PUSH2 0x37F PUSH1 0x4 DUP1 CALLDATASIZE SUB DUP2 ADD SWAP1 PUSH2 0x37A SWAP2 SWAP1 PUSH2 0x235A JUMP JUMPDEST PUSH2 0xED0 JUMP JUMPDEST PUSH1 0x40 MLOAD PUSH2 0x38C SWAP2 SWAP1 PUSH2 0x2011 JUMP JUMPDEST PUSH1 0x40 MLOAD DUP1 SWAP2 SUB SWAP1 RETURN JUMPDEST PUSH2 0x3AF PUSH1 0x4 DUP1 CALLDATASIZE SUB DUP2 ADD SWAP1 PUSH2 0x3AA SWAP2 SWAP1 PUSH2 0x235A JUMP JUMPDEST PUSH2 0xEFD JUMP JUMPDEST PUSH1 0x40 MLOAD PUSH2 0x3BC SWAP2 SWAP1 PUSH2 0x23C1 JUMP JUMPDEST PUSH1 0x40 MLOAD DUP1 SWAP2 SUB SWAP1 RETURN JUMPDEST PUSH2 0x3CD PUSH2 0xF45 JUMP JUMPDEST PUSH1 0x40 MLOAD PUSH2 0x3DA SWAP2 SWAP1 PUSH2 0x2011 JUMP JUMPDEST PUSH1 0x40 MLOAD DUP1 SWAP2 SUB SWAP1 RETURN JUMPDEST PUSH2 0x3EB PUSH2 0xF4B JUMP JUMPDEST PUSH1 0x40 MLOAD PUSH2 0x3F8 SWAP2 SWAP1 PUSH2 0x23E9 JUMP JUMPDEST PUSH1 0x40 MLOAD DUP1 SWAP2 SUB SWAP1 RETURN JUMPDEST PUSH2 0x41B PUSH1 0x4 DUP1 CALLDATASIZE SUB DUP2 ADD SWAP1 PUSH2 0x416 SWAP2 SWAP1 PUSH2 0x1FCE JUMP JUMPDEST PUSH2 0xF72 JUMP JUMPDEST PUSH1 0x40 MLOAD PUSH2 0x428 SWAP2 SWAP1 PUSH2 0x2011 JUMP JUMPDEST PUSH1 0x40 MLOAD DUP1 SWAP2 SUB SWAP1 RETURN JUMPDEST PUSH2 0x439 PUSH2 0x11C7 JUMP JUMPDEST PUSH1 0x40 MLOAD PUSH2 0x446 SWAP2 SWAP1 PUSH2 0x2011 JUMP JUMPDEST PUSH1 0x40 MLOAD DUP1 SWAP2 SUB SWAP1 RETURN JUMPDEST PUSH2 0x457 PUSH2 0x11CD JUMP JUMPDEST PUSH1 0x40 MLOAD PUSH2 0x464 SWAP2 SWAP1 PUSH2 0x2422 JUMP JUMPDEST PUSH1 0x40 MLOAD DUP1 SWAP2 SUB SWAP1 RETURN JUMPDEST PUSH2 0x487 PUSH1 0x4 DUP1 CALLDATASIZE SUB DUP2 ADD SWAP1 PUSH2 0x482 SWAP2 SWAP1 PUSH2 0x232F JUMP JUMPDEST PUSH2 0x11F2 JUMP JUMPDEST STOP JUMPDEST PUSH2 0x491 PUSH2 0x12CE JUMP JUMPDEST PUSH1 0x40 MLOAD PUSH2 0x49E SWAP2 SWAP1 PUSH2 0x245B JUMP JUMPDEST PUSH1 0x40 MLOAD DUP1 SWAP2 SUB SWAP1 RETURN JUMPDEST PUSH2 0x4C1 PUSH1 0x4 DUP1 CALLDATASIZE SUB DUP2 ADD SWAP1 PUSH2 0x4BC SWAP2 SWAP1 PUSH2 0x232F JUMP JUMPDEST PUSH2 0x12F3 JUMP JUMPDEST STOP JUMPDEST PUSH2 0x4CB PUSH2 0x181B JUMP JUMPDEST PUSH1 0x40 MLOAD PUSH2 0x4D8 SWAP2 SWAP1 PUSH2 0x2011 JUMP JUMPDEST PUSH1 0x40 MLOAD DUP1 SWAP2 SUB SWAP1 RETURN JUMPDEST PUSH2 0x4FB PUSH1 0x4 DUP1 CALLDATASIZE SUB DUP2 ADD SWAP1 PUSH2 0x4F6 SWAP2 SWAP1 PUSH2 0x229C JUMP JUMPDEST PUSH2 0x1821 JUMP JUMPDEST STOP JUMPDEST PUSH2 0x505 PUSH2 0x1977 JUMP JUMPDEST PUSH1 0x40 MLOAD PUSH2 0x512 SWAP2 SWAP1 PUSH2 0x2494 JUMP JUMPDEST PUSH1 0x40 MLOAD DUP1 SWAP2 SUB SWAP1 RETURN JUMPDEST PUSH2 0x535 PUSH1 0x4 DUP1 CALLDATASIZE SUB DUP2 ADD SWAP1 PUSH2 0x530 SWAP2 SWAP1 PUSH2 0x235A JUMP JUMPDEST PUSH2 0x199C JUMP JUMPDEST PUSH1 0x40 MLOAD PUSH2 0x542 SWAP2 SWAP1 PUSH2 0x2011 JUMP JUMPDEST PUSH1 0x40 MLOAD DUP1 SWAP2 SUB SWAP1 RETURN JUMPDEST PUSH2 0x565 PUSH1 0x4 DUP1 CALLDATASIZE SUB DUP2 ADD SWAP1 PUSH2 0x560 SWAP2 SWAP1 PUSH2 0x264F JUMP JUMPDEST PUSH2 0x19C9 JUMP JUMPDEST STOP JUMPDEST PUSH2 0x56F PUSH2 0x1ECF JUMP JUMPDEST PUSH1 0x40 MLOAD PUSH2 0x57C SWAP2 SWAP1 PUSH2 0x26E5 JUMP JUMPDEST PUSH1 0x40 MLOAD DUP1 SWAP2 SUB SWAP1 RETURN JUMPDEST PUSH2 0x59F PUSH1 0x4 DUP1 CALLDATASIZE SUB DUP2 ADD SWAP1 PUSH2 0x59A SWAP2 SWAP1 PUSH2 0x235A JUMP JUMPDEST PUSH2 0x1EF4 JUMP JUMPDEST PUSH1 0x40 MLOAD PUSH2 0x5AC SWAP2 SWAP1 PUSH2 0x2011 JUMP JUMPDEST PUSH1 0x40 MLOAD DUP1 SWAP2 SUB SWAP1 RETURN JUMPDEST PUSH2 0x5BD PUSH2 0x1F1B JUMP JUMPDEST PUSH1 0x40 MLOAD PUSH2 0x5CA SWAP2 SWAP1 PUSH2 0x271E JUMP JUMPDEST PUSH1 0x40 MLOAD DUP1 SWAP2 SUB SWAP1 RETURN JUMPDEST PUSH2 0x5DB PUSH2 0x1F40 JUMP JUMPDEST PUSH1 0x40 MLOAD PUSH2 0x5E8 SWAP2 SWAP1 PUSH2 0x23E9 JUMP JUMPDEST PUSH1 0x40 MLOAD DUP1 SWAP2 SUB SWAP1 RETURN JUMPDEST PUSH0 PUSH1 0x1 PUSH0 SWAP1 SLOAD SWAP1 PUSH2 0x100 EXP SWAP1 DIV PUSH20 0xFFFFFFFFFFFFFFFFFFFFFFFFFFFFFFFFFFFFFFFF AND PUSH20 0xFFFFFFFFFFFFFFFFFFFFFFFFFFFFFFFFFFFFFFFF AND PUSH4 0x70A08231 DUP4 PUSH1 0x40 MLOAD DUP3 PUSH4 0xFFFFFFFF AND PUSH1 0xE0 SHL DUP2 MSTORE PUSH1 0x4 ADD PUSH2 0x64C SWAP2 SWAP1 PUSH2 0x23E9 JUMP JUMPDEST PUSH1 0x20 PUSH1 0x40 MLOAD DUP1 DUP4 SUB DUP2 DUP7 GAS STATICCALL ISZERO DUP1 ISZERO PUSH2 0x667 JUMPI RETURNDATASIZE PUSH0 DUP1 RETURNDATACOPY RETURNDATASIZE PUSH0 REVERT JUMPDEST POP POP POP POP PUSH1 0x40 MLOAD RETURNDATASIZE PUSH1 0x1F NOT PUSH1 0x1F DUP3 ADD AND DUP3 ADD DUP1 PUSH1 0x40 MSTORE POP DUP2 ADD SWAP1 PUSH2 0x68B SWAP2 SWAP1 PUSH2 0x274B JUMP JUMPDEST SWAP1 POP SWAP2 SWAP1 POP JUMP JUMPDEST PUSH0 DUP3 PUSH20 0xFFFFFFFFFFFFFFFFFFFFFFFFFFFFFFFFFFFFFFFF AND PUSH4 0xDD62ED3E DUP4 ADDRESS PUSH1 0x40 MLOAD DUP4 PUSH4 0xFFFFFFFF AND PUSH1 0xE0 SHL DUP2 MSTORE PUSH1 0x4 ADD PUSH2 0x6CE SWAP3 SWAP2 SWAP1 PUSH2 0x2776 JUMP JUMPDEST PUSH1 0x20 PUSH1 0x40 MLOAD DUP1 DUP4 SUB DUP2 DUP7 GAS STATICCALL ISZERO DUP1 ISZERO PUSH2 0x6E9 JUMPI RETURNDATASIZE PUSH0 DUP1 RETURNDATACOPY RETURNDATASIZE PUSH0 REVERT JUMPDEST POP POP POP POP PUSH1 0x40 MLOAD RETURNDATASIZE PUSH1 0x1F NOT PUSH1 0x1F DUP3 ADD AND DUP3 ADD DUP1 PUSH1 0x40 MSTORE POP DUP2 ADD SWAP1 PUSH2 0x70D SWAP2 SWAP1 PUSH2 0x274B JUMP JUMPDEST SWAP1 POP SWAP3 SWAP2 POP POP JUMP JUMPDEST PUSH1 0x3 PUSH0 SWAP1 SLOAD SWAP1 PUSH2 0x100 EXP SWAP1 DIV PUSH20 0xFFFFFFFFFFFFFFFFFFFFFFFFFFFFFFFFFFFFFFFF AND DUP2 JUMP JUMPDEST PUSH1 0xD PUSH1 0x20 MSTORE DUP2 PUSH0 MSTORE PUSH1 0x40 PUSH0 KECCAK256 DUP2 DUP1 MLOAD PUSH1 0x20 DUP2 ADD DUP3 ADD DUP1 MLOAD DUP5 DUP3 MSTORE PUSH1 0x20 DUP4 ADD PUSH1 0x20 DUP6 ADD KECCAK256 DUP2 DUP4 MSTORE DUP1 SWAP6 POP POP POP POP POP POP PUSH0 SWAP2 POP SWAP2 POP POP SLOAD DUP2 JUMP JUMPDEST PUSH0 DUP1 SLOAD SWAP1 PUSH2 0x100 EXP SWAP1 DIV PUSH20 0xFFFFFFFFFFFFFFFFFFFFFFFFFFFFFFFFFFFFFFFF AND PUSH20 0xFFFFFFFFFFFFFFFFFFFFFFFFFFFFFFFFFFFFFFFF AND CALLER PUSH20 0xFFFFFFFFFFFFFFFFFFFFFFFFFFFFFFFFFFFFFFFF AND EQ PUSH2 0x7FF JUMPI PUSH1 0x40 MLOAD PUSH32 0x8C379A000000000000000000000000000000000000000000000000000000000 DUP2 MSTORE PUSH1 0x4 ADD PUSH2 0x7F6 SWAP1 PUSH2 0x281D JUMP JUMPDEST PUSH1 0x40 MLOAD DUP1 SWAP2 SUB SWAP1 REVERT JUMPDEST PUSH0 DUP2 GT PUSH2 0x841 JUMPI PUSH1 0x40 MLOAD PUSH32 0x8C379A000000000000000000000000000000000000000000000000000000000 DUP2 MSTORE PUSH1 0x4 ADD PUSH2 0x838 SWAP1 PUSH2 0x2885 JUMP JUMPDEST PUSH1 0x40 MLOAD DUP1 SWAP2 SUB SWAP1 REVERT JUMPDEST PUSH0 PUSH1 0xB DUP4 PUSH1 0x40 MLOAD PUSH2 0x852 SWAP2 SWAP1 PUSH2 0x28F5 JUMP JUMPDEST SWAP1 DUP2 MSTORE PUSH1 0x20 ADD PUSH1 0x40 MLOAD DUP1 SWAP2 SUB SWAP1 KECCAK256 SLOAD GT PUSH2 0x8A1 JUMPI PUSH1 0x40 MLOAD PUSH32 0x8C379A000000000000000000000000000000000000000000000000000000000 DUP2 MSTORE PUSH1 0x4 ADD PUSH2 0x898 SWAP1 PUSH2 0x2955 JUMP JUMPDEST PUSH1 0x40 MLOAD DUP1 SWAP2 SUB SWAP1 REVERT JUMPDEST DUP1 PUSH1 0xB DUP4 PUSH1 0x40 MLOAD PUSH2 0x8B2 SWAP2 SWAP1 PUSH2 0x28F5 JUMP JUMPDEST SWAP1 DUP2 MSTORE PUSH1 0x20 ADD PUSH1 0x40 MLOAD DUP1 SWAP2 SUB SWAP1 KECCAK256 DUP2 SWAP1 SSTORE POP POP POP JUMP JUMPDEST PUSH1 0x5 PUSH0 SWAP1 SLOAD SWAP1 PUSH2 0x100 EXP SWAP1 DIV PUSH20 0xFFFFFFFFFFFFFFFFFFFFFFFFFFFFFFFFFFFFFFFF AND DUP2 JUMP JUMPDEST PUSH0 PUSH1 0x64 PUSH1 0xE SLOAD DUP4 PUSH2 0x8FE SWAP2 SWAP1 PUSH2 0x29A0 JUMP JUMPDEST PUSH2 0x908 SWAP2 SWAP1 PUSH2 0x2A0E JUMP JUMPDEST SWAP1 POP DUP1 PUSH2 0x914 CALLER PUSH2 0xF72 JUMP JUMPDEST LT ISZERO PUSH2 0x955 JUMPI PUSH1 0x40 MLOAD PUSH32 0x8C379A000000000000000000000000000000000000000000000000000000000 DUP2 MSTORE PUSH1 0x4 ADD PUSH2 0x94C SWAP1 PUSH2 0x2AAE JUMP JUMPDEST PUSH1 0x40 MLOAD DUP1 SWAP2 SUB SWAP1 REVERT JUMPDEST PUSH0 PUSH2 0x2710 PUSH1 0x8 SLOAD DUP5 PUSH2 0x967 SWAP2 SWAP1 PUSH2 0x29A0 JUMP JUMPDEST PUSH2 0x971 SWAP2 SWAP1 PUSH2 0x2A0E JUMP JUMPDEST SWAP1 POP PUSH0 DUP2 DUP5 PUSH2 0x980 SWAP2 SWAP1 PUSH2 0x2ACC JUMP JUMPDEST SWAP1 POP DUP1 PUSH1 0x1 PUSH0 SWAP1 SLOAD SWAP1 PUSH2 0x100 EXP SWAP1 DIV PUSH20 0xFFFFFFFFFFFFFFFFFFFFFFFFFFFFFFFFFFFFFFFF AND PUSH20 0xFFFFFFFFFFFFFFFFFFFFFFFFFFFFFFFFFFFFFFFF AND PUSH4 0x70A08231 CALLER PUSH1 0x40 MLOAD DUP3 PUSH4 0xFFFFFFFF AND PUSH1 0xE0 SHL DUP2 MSTORE PUSH1 0x4 ADD PUSH2 0x9DD SWAP2 SWAP1 PUSH2 0x23E9 JUMP JUMPDEST PUSH1 0x20 PUSH1 0x40 MLOAD DUP1 DUP4 SUB DUP2 DUP7 GAS STATICCALL ISZERO DUP1 ISZERO PUSH2 0x9F8 JUMPI RETURNDATASIZE PUSH0 DUP1 RETURNDATACOPY RETURNDATASIZE PUSH0 REVERT JUMPDEST POP POP POP POP PUSH1 0x40 MLOAD RETURNDATASIZE PUSH1 0x1F NOT PUSH1 0x1F DUP3 ADD AND DUP3 ADD DUP1 PUSH1 0x40 MSTORE POP DUP2 ADD SWAP1 PUSH2 0xA1C SWAP2 SWAP1 PUSH2 0x274B JUMP JUMPDEST LT ISZERO PUSH2 0xA5D JUMPI PUSH1 0x40 MLOAD PUSH32 0x8C379A000000000000000000000000000000000000000000000000000000000 DUP2 MSTORE PUSH1 0x4 ADD PUSH2 0xA54 SWAP1 PUSH2 0x2B49 JUMP JUMPDEST PUSH1 0x40 MLOAD DUP1 SWAP2 SUB SWAP1 REVERT JUMPDEST PUSH1 0x1 PUSH0 SWAP1 SLOAD SWAP1 PUSH2 0x100 EXP SWAP1 DIV PUSH20 0xFFFFFFFFFFFFFFFFFFFFFFFFFFFFFFFFFFFFFFFF AND PUSH20 0xFFFFFFFFFFFFFFFFFFFFFFFFFFFFFFFFFFFFFFFF AND PUSH4 0x9DC29FAC CALLER DUP7 PUSH1 0x40 MLOAD DUP4 PUSH4 0xFFFFFFFF AND PUSH1 0xE0 SHL DUP2 MSTORE PUSH1 0x4 ADD PUSH2 0xAB9 SWAP3 SWAP2 SWAP1 PUSH2 0x2B67 JUMP JUMPDEST PUSH0 PUSH1 0x40 MLOAD DUP1 DUP4 SUB DUP2 PUSH0 DUP8 DUP1 EXTCODESIZE ISZERO DUP1 ISZERO PUSH2 0xAD0 JUMPI PUSH0 DUP1 REVERT JUMPDEST POP GAS CALL ISZERO DUP1 ISZERO PUSH2 0xAE2 JUMPI RETURNDATASIZE PUSH0 DUP1 RETURNDATACOPY RETURNDATASIZE PUSH0 REVERT JUMPDEST POP POP POP POP PUSH0 DUP4 SWAP1 POP PUSH0 PUSH1 0x40 MLOAD DUP1 PUSH1 0xC0 ADD PUSH1 0x40 MSTORE DUP1 PUSH1 0x40 MLOAD DUP1 PUSH1 0x40 ADD PUSH1 0x40 MSTORE DUP1 PUSH1 0x3 DUP2 MSTORE PUSH1 0x20 ADD PUSH32 0x434E590000000000000000000000000000000000000000000000000000000000 DUP2 MSTORE POP DUP2 MSTORE PUSH1 0x20 ADD PUSH1 0x40 MLOAD DUP1 PUSH1 0x40 ADD PUSH1 0x40 MSTORE DUP1 PUSH1 0x3 DUP2 MSTORE PUSH1 0x20 ADD PUSH32 0x5255420000000000000000000000000000000000000000000000000000000000 DUP2 MSTORE POP DUP2 MSTORE PUSH1 0x20 ADD PUSH1 0x40 MLOAD DUP1 PUSH1 0x40 ADD PUSH1 0x40 MSTORE DUP1 PUSH1 0x3 DUP2 MSTORE PUSH1 0x20 ADD PUSH32 0x494E520000000000000000000000000000000000000000000000000000000000 DUP2 MSTORE POP DUP2 MSTORE PUSH1 0x20 ADD PUSH1 0x40 MLOAD DUP1 PUSH1 0x40 ADD PUSH1 0x40 MSTORE DUP1 PUSH1 0x3 DUP2 MSTORE PUSH1 0x20 ADD PUSH32 0x42524C0000000000000000000000000000000000000000000000000000000000 DUP2 MSTORE POP DUP2 MSTORE PUSH1 0x20 ADD PUSH1 0x40 MLOAD DUP1 PUSH1 0x40 ADD PUSH1 0x40 MSTORE DUP1 PUSH1 0x3 DUP2 MSTORE PUSH1 0x20 ADD PUSH32 0x5A41520000000000000000000000000000000000000000000000000000000000 DUP2 MSTORE POP DUP2 MSTORE PUSH1 0x20 ADD PUSH1 0x40 MLOAD DUP1 PUSH1 0x40 ADD PUSH1 0x40 MSTORE DUP1 PUSH1 0x3 DUP2 MSTORE PUSH1 0x20 ADD PUSH32 0x5553440000000000000000000000000000000000000000000000000000000000 DUP2 MSTORE POP DUP2 MSTORE POP SWAP1 POP PUSH0 JUMPDEST PUSH1 0x6 DUP2 LT ISZERO PUSH2 0xDAE JUMPI PUSH0 DUP3 DUP3 PUSH1 0x6 DUP2 LT PUSH2 0xC77 JUMPI PUSH2 0xC76 PUSH2 0x2B8E JUMP JUMPDEST JUMPDEST PUSH1 0x20 MUL ADD MLOAD SWAP1 POP PUSH0 PUSH1 0xD PUSH0 CALLER PUSH20 0xFFFFFFFFFFFFFFFFFFFFFFFFFFFFFFFFFFFFFFFF AND PUSH20 0xFFFFFFFFFFFFFFFFFFFFFFFFFFFFFFFFFFFFFFFF AND DUP2 MSTORE PUSH1 0x20 ADD SWAP1 DUP2 MSTORE PUSH1 0x20 ADD PUSH0 KECCAK256 DUP3 PUSH1 0x40 MLOAD PUSH2 0xCCA SWAP2 SWAP1 PUSH2 0x28F5 JUMP JUMPDEST SWAP1 DUP2 MSTORE PUSH1 0x20 ADD PUSH1 0x40 MLOAD DUP1 SWAP2 SUB SWAP1 KECCAK256 SLOAD SWAP1 POP PUSH0 DUP2 GT ISZERO PUSH2 0xD9F JUMPI PUSH0 PUSH2 0xCED CALLER PUSH2 0xF72 JUMP JUMPDEST DUP7 DUP4 PUSH2 0xCF9 SWAP2 SWAP1 PUSH2 0x29A0 JUMP JUMPDEST PUSH2 0xD03 SWAP2 SWAP1 PUSH2 0x2A0E JUMP JUMPDEST SWAP1 POP DUP2 DUP2 GT ISZERO PUSH2 0xD11 JUMPI DUP2 SWAP1 POP JUMPDEST DUP1 PUSH1 0xD PUSH0 CALLER PUSH20 0xFFFFFFFFFFFFFFFFFFFFFFFFFFFFFFFFFFFFFFFF AND PUSH20 0xFFFFFFFFFFFFFFFFFFFFFFFFFFFFFFFFFFFFFFFF AND DUP2 MSTORE PUSH1 0x20 ADD SWAP1 DUP2 MSTORE PUSH1 0x20 ADD PUSH0 KECCAK256 DUP5 PUSH1 0x40 MLOAD PUSH2 0xD5D SWAP2 SWAP1 PUSH2 0x28F5 JUMP JUMPDEST SWAP1 DUP2 MSTORE PUSH1 0x20 ADD PUSH1 0x40 MLOAD DUP1 SWAP2 SUB SWAP1 KECCAK256 PUSH0 DUP3 DUP3 SLOAD PUSH2 0xD79 SWAP2 SWAP1 PUSH2 0x2BBB JUMP JUMPDEST SWAP3 POP POP DUP2 SWAP1 SSTORE POP DUP1 DUP7 PUSH2 0xD8C SWAP2 SWAP1 PUSH2 0x2BBB JUMP JUMPDEST SWAP6 POP PUSH0 DUP7 SUB PUSH2 0xD9D JUMPI POP POP POP PUSH2 0xDAE JUMP JUMPDEST POP JUMPDEST POP POP DUP1 DUP1 PUSH1 0x1 ADD SWAP2 POP POP PUSH2 0xC5A JUMP JUMPDEST POP PUSH0 DUP3 EQ PUSH2 0xDF1 JUMPI PUSH1 0x40 MLOAD PUSH32 0x8C379A000000000000000000000000000000000000000000000000000000000 DUP2 MSTORE PUSH1 0x4 ADD PUSH2 0xDE8 SWAP1 PUSH2 0x2C5E JUMP JUMPDEST PUSH1 0x40 MLOAD DUP1 SWAP2 SUB SWAP1 REVERT JUMPDEST POP POP POP POP POP POP JUMP JUMPDEST PUSH0 PUSH1 0xD PUSH0 DUP5 PUSH20 0xFFFFFFFFFFFFFFFFFFFFFFFFFFFFFFFFFFFFFFFF AND PUSH20 0xFFFFFFFFFFFFFFFFFFFFFFFFFFFFFFFFFFFFFFFF AND DUP2 MSTORE PUSH1 0x20 ADD SWAP1 DUP2 MSTORE PUSH1 0x20 ADD PUSH0 KECCAK256 DUP3 PUSH1 0x40 MLOAD PUSH2 0xE45 SWAP2 SWAP1 PUSH2 0x28F5 JUMP JUMPDEST SWAP1 DUP2 MSTORE PUSH1 0x20 ADD PUSH1 0x40 MLOAD DUP1 SWAP2 SUB SWAP1 KECCAK256 SLOAD SWAP1 POP SWAP3 SWAP2 POP POP JUMP JUMPDEST PUSH0 PUSH1 0xD PUSH0 DUP5 PUSH20 0xFFFFFFFFFFFFFFFFFFFFFFFFFFFFFFFFFFFFFFFF AND PUSH20 0xFFFFFFFFFFFFFFFFFFFFFFFFFFFFFFFFFFFFFFFF AND DUP2 MSTORE PUSH1 0x20 ADD SWAP1 DUP2 MSTORE PUSH1 0x20 ADD PUSH0 KECCAK256 DUP3 PUSH1 0x40 MLOAD PUSH2 0xEA8 SWAP2 SWAP1 PUSH2 0x28F5 JUMP JUMPDEST SWAP1 DUP2 MSTORE PUSH1 0x20 ADD PUSH1 0x40 MLOAD DUP1 SWAP2 SUB SWAP1 KECCAK256 SLOAD SWAP1 POP SWAP3 SWAP2 POP POP JUMP JUMPDEST PUSH0 PUSH2 0xEC9 DUP3 PUSH2 0xF72 JUMP JUMPDEST SWAP1 POP SWAP2 SWAP1 POP JUMP JUMPDEST PUSH1 0xB DUP2 DUP1 MLOAD PUSH1 0x20 DUP2 ADD DUP3 ADD DUP1 MLOAD DUP5 DUP3 MSTORE PUSH1 0x20 DUP4 ADD PUSH1 0x20 DUP6 ADD KECCAK256 DUP2 DUP4 MSTORE DUP1 SWAP6 POP POP POP POP POP POP PUSH0 SWAP2 POP SWAP1 POP SLOAD DUP2 JUMP JUMPDEST PUSH1 0xA DUP2 DUP1 MLOAD PUSH1 0x20 DUP2 ADD DUP3 ADD DUP1 MLOAD DUP5 DUP3 MSTORE PUSH1 0x20 DUP4 ADD PUSH1 0x20 DUP6 ADD KECCAK256 DUP2 DUP4 MSTORE DUP1 SWAP6 POP POP POP POP POP POP PUSH0 SWAP2 POP SLOAD SWAP1 PUSH2 0x100 EXP SWAP1 DIV PUSH20 0xFFFFFFFFFFFFFFFFFFFFFFFFFFFFFFFFFFFFFFFF AND DUP2 JUMP JUMPDEST PUSH1 0x9 SLOAD DUP2 JUMP JUMPDEST PUSH0 DUP1 PUSH0 SWAP1 SLOAD SWAP1 PUSH2 0x100 EXP SWAP1 DIV PUSH20 0xFFFFFFFFFFFFFFFFFFFFFFFFFFFFFFFFFFFFFFFF AND SWAP1 POP SWAP1 JUMP JUMPDEST PUSH0 DUP1 PUSH1 0x40 MLOAD DUP1 PUSH1 0xC0 ADD PUSH1 0x40 MSTORE DUP1 PUSH1 0x40 MLOAD DUP1 PUSH1 0x40 ADD PUSH1 0x40 MSTORE DUP1 PUSH1 0x3 DUP2 MSTORE PUSH1 0x20 ADD PUSH32 0x434E590000000000000000000000000000000000000000000000000000000000 DUP2 MSTORE POP DUP2 MSTORE PUSH1 0x20 ADD PUSH1 0x40 MLOAD DUP1 PUSH1 0x40 ADD PUSH1 0x40 MSTORE DUP1 PUSH1 0x3 DUP2 MSTORE PUSH1 0x20 ADD PUSH32 0x5255420000000000000000000000000000000000000000000000000000000000 DUP2 MSTORE POP DUP2 MSTORE PUSH1 0x20 ADD PUSH1 0x40 MLOAD DUP1 PUSH1 0x40 ADD PUSH1 0x40 MSTORE DUP1 PUSH1 0x3 DUP2 MSTORE PUSH1 0x20 ADD PUSH32 0x494E520000000000000000000000000000000000000000000000000000000000 DUP2 MSTORE POP DUP2 MSTORE PUSH1 0x20 ADD PUSH1 0x40 MLOAD DUP1 PUSH1 0x40 ADD PUSH1 0x40 MSTORE DUP1 PUSH1 0x3 DUP2 MSTORE PUSH1 0x20 ADD PUSH32 0x42524C0000000000000000000000000000000000000000000000000000000000 DUP2 MSTORE POP DUP2 MSTORE PUSH1 0x20 ADD PUSH1 0x40 MLOAD DUP1 PUSH1 0x40 ADD PUSH1 0x40 MSTORE DUP1 PUSH1 0x3 DUP2 MSTORE PUSH1 0x20 ADD PUSH32 0x5A41520000000000000000000000000000000000000000000000000000000000 DUP2 MSTORE POP DUP2 MSTORE PUSH1 0x20 ADD PUSH1 0x40 MLOAD DUP1 PUSH1 0x40 ADD PUSH1 0x40 MSTORE DUP1 PUSH1 0x3 DUP2 MSTORE PUSH1 0x20 ADD PUSH32 0x5553440000000000000000000000000000000000000000000000000000000000 DUP2 MSTORE POP DUP2 MSTORE POP SWAP1 POP PUSH0 JUMPDEST PUSH1 0x6 DUP2 LT ISZERO PUSH2 0x11C0 JUMPI PUSH0 DUP3 DUP3 PUSH1 0x6 DUP2 LT PUSH2 0x1100 JUMPI PUSH2 0x10FF PUSH2 0x2B8E JUMP JUMPDEST JUMPDEST PUSH1 0x20 MUL ADD MLOAD SWAP1 POP PUSH0 PUSH1 0xD PUSH0 DUP8 PUSH20 0xFFFFFFFFFFFFFFFFFFFFFFFFFFFFFFFFFFFFFFFF AND PUSH20 0xFFFFFFFFFFFFFFFFFFFFFFFFFFFFFFFFFFFFFFFF AND DUP2 MSTORE PUSH1 0x20 ADD SWAP1 DUP2 MSTORE PUSH1 0x20 ADD PUSH0 KECCAK256 DUP3 PUSH1 0x40 MLOAD PUSH2 0x1153 SWAP2 SWAP1 PUSH2 0x28F5 JUMP JUMPDEST SWAP1 DUP2 MSTORE PUSH1 0x20 ADD PUSH1 0x40 MLOAD DUP1 SWAP2 SUB SWAP1 KECCAK256 SLOAD SWAP1 POP PUSH0 DUP2 GT ISZERO PUSH2 0x11B1 JUMPI PUSH2 0x3E8 PUSH1 0xB DUP4 PUSH1 0x40 MLOAD PUSH2 0x117F SWAP2 SWAP1 PUSH2 0x28F5 JUMP JUMPDEST SWAP1 DUP2 MSTORE PUSH1 0x20 ADD PUSH1 0x40 MLOAD DUP1 SWAP2 SUB SWAP1 KECCAK256 SLOAD DUP3 PUSH2 0x1199 SWAP2 SWAP1 PUSH2 0x29A0 JUMP JUMPDEST PUSH2 0x11A3 SWAP2 SWAP1 PUSH2 0x2A0E JUMP JUMPDEST DUP6 PUSH2 0x11AE SWAP2 SWAP1 PUSH2 0x2ACC JUMP JUMPDEST SWAP5 POP JUMPDEST POP POP DUP1 DUP1 PUSH1 0x1 ADD SWAP2 POP POP PUSH2 0x10E3 JUMP JUMPDEST POP POP SWAP2 SWAP1 POP JUMP JUMPDEST PUSH1 0x8 SLOAD DUP2 JUMP JUMPDEST PUSH1 0x1 PUSH0 SWAP1 SLOAD SWAP1 PUSH2 0x100 EXP SWAP1 DIV PUSH20 0xFFFFFFFFFFFFFFFFFFFFFFFFFFFFFFFFFFFFFFFF AND DUP2 JUMP JUMPDEST PUSH0 DUP1 SLOAD SWAP1 PUSH2 0x100 EXP SWAP1 DIV PUSH20 0xFFFFFFFFFFFFFFFFFFFFFFFFFFFFFFFFFFFFFFFF AND PUSH20 0xFFFFFFFFFFFFFFFFFFFFFFFFFFFFFFFFFFFFFFFF AND CALLER PUSH20 0xFFFFFFFFFFFFFFFFFFFFFFFFFFFFFFFFFFFFFFFF AND EQ PUSH2 0x127F JUMPI PUSH1 0x40 MLOAD PUSH32 0x8C379A000000000000000000000000000000000000000000000000000000000 DUP2 MSTORE PUSH1 0x4 ADD PUSH2 0x1276 SWAP1 PUSH2 0x281D JUMP JUMPDEST PUSH1 0x40 MLOAD DUP1 SWAP2 SUB SWAP1 REVERT JUMPDEST PUSH2 0x2710 DUP2 GT ISZERO PUSH2 0x12C4 JUMPI PUSH1 0x40 MLOAD PUSH32 0x8C379A000000000000000000000000000000000000000000000000000000000 DUP2 MSTORE PUSH1 0x4 ADD PUSH2 0x12BB SWAP1 PUSH2 0x2CC6 JUMP JUMPDEST PUSH1 0x40 MLOAD DUP1 SWAP2 SUB SWAP1 REVERT JUMPDEST DUP1 PUSH1 0x8 DUP2 SWAP1 SSTORE POP POP JUMP JUMPDEST PUSH1 0x2 PUSH0 SWAP1 SLOAD SWAP1 PUSH2 0x100 EXP SWAP1 DIV PUSH20 0xFFFFFFFFFFFFFFFFFFFFFFFFFFFFFFFFFFFFFFFF AND DUP2 JUMP JUMPDEST PUSH0 PUSH1 0x64 PUSH1 0xE SLOAD DUP4 PUSH2 0x1304 SWAP2 SWAP1 PUSH2 0x29A0 JUMP JUMPDEST PUSH2 0x130E SWAP2 SWAP1 PUSH2 0x2A0E JUMP JUMPDEST SWAP1 POP PUSH0 PUSH2 0x131A CALLER PUSH2 0xF72 JUMP JUMPDEST SWAP1 POP DUP2 DUP2 LT ISZERO PUSH2 0x135F JUMPI PUSH1 0x40 MLOAD PUSH32 0x8C379A000000000000000000000000000000000000000000000000000000000 DUP2 MSTORE PUSH1 0x4 ADD PUSH2 0x1356 SWAP1 PUSH2 0x2AAE JUMP JUMPDEST PUSH1 0x40 MLOAD DUP1 SWAP2 SUB SWAP1 REVERT JUMPDEST PUSH1 0x1 PUSH0 SWAP1 SLOAD SWAP1 PUSH2 0x100 EXP SWAP1 DIV PUSH20 0xFFFFFFFFFFFFFFFFFFFFFFFFFFFFFFFFFFFFFFFF AND PUSH20 0xFFFFFFFFFFFFFFFFFFFFFFFFFFFFFFFFFFFFFFFF AND PUSH4 0x9DC29FAC CALLER DUP6 PUSH1 0x40 MLOAD DUP4 PUSH4 0xFFFFFFFF AND PUSH1 0xE0 SHL DUP2 MSTORE PUSH1 0x4 ADD PUSH2 0x13BB SWAP3 SWAP2 SWAP1 PUSH2 0x2B67 JUMP JUMPDEST PUSH0 PUSH1 0x40 MLOAD DUP1 DUP4 SUB DUP2 PUSH0 DUP8 DUP1 EXTCODESIZE ISZERO DUP1 ISZERO PUSH2 0x13D2 JUMPI PUSH0 DUP1 REVERT JUMPDEST POP GAS CALL ISZERO DUP1 ISZERO PUSH2 0x13E4 JUMPI RETURNDATASIZE PUSH0 DUP1 RETURNDATACOPY RETURNDATASIZE PUSH0 REVERT JUMPDEST POP POP POP POP PUSH0 PUSH1 0x40 MLOAD DUP1 PUSH1 0xC0 ADD PUSH1 0x40 MSTORE DUP1 PUSH1 0x40 MLOAD DUP1 PUSH1 0x40 ADD PUSH1 0x40 MSTORE DUP1 PUSH1 0x3 DUP2 MSTORE PUSH1 0x20 ADD PUSH32 0x434E590000000000000000000000000000000000000000000000000000000000 DUP2 MSTORE POP DUP2 MSTORE PUSH1 0x20 ADD PUSH1 0x40 MLOAD DUP1 PUSH1 0x40 ADD PUSH1 0x40 MSTORE DUP1 PUSH1 0x3 DUP2 MSTORE PUSH1 0x20 ADD PUSH32 0x5255420000000000000000000000000000000000000000000000000000000000 DUP2 MSTORE POP DUP2 MSTORE PUSH1 0x20 ADD PUSH1 0x40 MLOAD DUP1 PUSH1 0x40 ADD PUSH1 0x40 MSTORE DUP1 PUSH1 0x3 DUP2 MSTORE PUSH1 0x20 ADD PUSH32 0x494E520000000000000000000000000000000000000000000000000000000000 DUP2 MSTORE POP DUP2 MSTORE PUSH1 0x20 ADD PUSH1 0x40 MLOAD DUP1 PUSH1 0x40 ADD PUSH1 0x40 MSTORE DUP1 PUSH1 0x3 DUP2 MSTORE PUSH1 0x20 ADD PUSH32 0x42524C0000000000000000000000000000000000000000000000000000000000 DUP2 MSTORE POP DUP2 MSTORE PUSH1 0x20 ADD PUSH1 0x40 MLOAD DUP1 PUSH1 0x40 ADD PUSH1 0x40 MSTORE DUP1 PUSH1 0x3 DUP2 MSTORE PUSH1 0x20 ADD PUSH32 0x5A41520000000000000000000000000000000000000000000000000000000000 DUP2 MSTORE POP DUP2 MSTORE PUSH1 0x20 ADD PUSH1 0x40 MLOAD DUP1 PUSH1 0x40 ADD PUSH1 0x40 MSTORE DUP1 PUSH1 0x3 DUP2 MSTORE PUSH1 0x20 ADD PUSH32 0x5553440000000000000000000000000000000000000000000000000000000000 DUP2 MSTORE POP DUP2 MSTORE POP SWAP1 POP PUSH0 DUP4 SWAP1 POP PUSH0 DUP1 PUSH0 JUMPDEST PUSH1 0x6 DUP2 LT ISZERO PUSH2 0x17CF JUMPI PUSH0 DUP6 DUP3 PUSH1 0x6 DUP2 LT PUSH2 0x157B JUMPI PUSH2 0x157A PUSH2 0x2B8E JUMP JUMPDEST JUMPDEST PUSH1 0x20 MUL ADD MLOAD SWAP1 POP PUSH0 PUSH1 0xD PUSH0 CALLER PUSH20 0xFFFFFFFFFFFFFFFFFFFFFFFFFFFFFFFFFFFFFFFF AND PUSH20 0xFFFFFFFFFFFFFFFFFFFFFFFFFFFFFFFFFFFFFFFF AND DUP2 MSTORE PUSH1 0x20 ADD SWAP1 DUP2 MSTORE PUSH1 0x20 ADD PUSH0 KECCAK256 DUP3 PUSH1 0x40 MLOAD PUSH2 0x15CE SWAP2 SWAP1 PUSH2 0x28F5 JUMP JUMPDEST SWAP1 DUP2 MSTORE PUSH1 0x20 ADD PUSH1 0x40 MLOAD DUP1 SWAP2 SUB SWAP1 KECCAK256 SLOAD SWAP1 POP PUSH0 DUP2 GT ISZERO PUSH2 0x17C0 JUMPI PUSH2 0x3E8 PUSH1 0xB DUP4 PUSH1 0x40 MLOAD PUSH2 0x15FA SWAP2 SWAP1 PUSH2 0x28F5 JUMP JUMPDEST SWAP1 DUP2 MSTORE PUSH1 0x20 ADD PUSH1 0x40 MLOAD DUP1 SWAP2 SUB SWAP1 KECCAK256 SLOAD DUP3 PUSH2 0x1614 SWAP2 SWAP1 PUSH2 0x29A0 JUMP JUMPDEST PUSH2 0x161E SWAP2 SWAP1 PUSH2 0x2A0E JUMP JUMPDEST SWAP5 POP DUP8 DUP2 DUP8 PUSH2 0x162D SWAP2 SWAP1 PUSH2 0x29A0 JUMP JUMPDEST PUSH2 0x1637 SWAP2 SWAP1 PUSH2 0x2A0E JUMP JUMPDEST SWAP4 POP DUP1 DUP5 GT ISZERO PUSH2 0x1645 JUMPI DUP1 SWAP4 POP JUMPDEST PUSH2 0x3E8 PUSH1 0xB DUP4 PUSH1 0x40 MLOAD PUSH2 0x1658 SWAP2 SWAP1 PUSH2 0x28F5 JUMP JUMPDEST SWAP1 DUP2 MSTORE PUSH1 0x20 ADD PUSH1 0x40 MLOAD DUP1 SWAP2 SUB SWAP1 KECCAK256 SLOAD DUP6 PUSH2 0x1672 SWAP2 SWAP1 PUSH2 0x29A0 JUMP JUMPDEST PUSH2 0x167C SWAP2 SWAP1 PUSH2 0x2A0E JUMP JUMPDEST DUP7 PUSH2 0x1687 SWAP2 SWAP1 PUSH2 0x2BBB JUMP JUMPDEST SWAP6 POP DUP4 PUSH1 0xD PUSH0 CALLER PUSH20 0xFFFFFFFFFFFFFFFFFFFFFFFFFFFFFFFFFFFFFFFF AND PUSH20 0xFFFFFFFFFFFFFFFFFFFFFFFFFFFFFFFFFFFFFFFF AND DUP2 MSTORE PUSH1 0x20 ADD SWAP1 DUP2 MSTORE PUSH1 0x20 ADD PUSH0 KECCAK256 DUP4 PUSH1 0x40 MLOAD PUSH2 0x16D5 SWAP2 SWAP1 PUSH2 0x28F5 JUMP JUMPDEST SWAP1 DUP2 MSTORE PUSH1 0x20 ADD PUSH1 0x40 MLOAD DUP1 SWAP2 SUB SWAP1 KECCAK256 PUSH0 DUP3 DUP3 SLOAD PUSH2 0x16F1 SWAP2 SWAP1 PUSH2 0x2BBB JUMP JUMPDEST SWAP3 POP POP DUP2 SWAP1 SSTORE POP PUSH1 0xA DUP3 PUSH1 0x40 MLOAD PUSH2 0x1708 SWAP2 SWAP1 PUSH2 0x28F5 JUMP JUMPDEST SWAP1 DUP2 MSTORE PUSH1 0x20 ADD PUSH1 0x40 MLOAD DUP1 SWAP2 SUB SWAP1 KECCAK256 PUSH0 SWAP1 SLOAD SWAP1 PUSH2 0x100 EXP SWAP1 DIV PUSH20 0xFFFFFFFFFFFFFFFFFFFFFFFFFFFFFFFFFFFFFFFF AND PUSH20 0xFFFFFFFFFFFFFFFFFFFFFFFFFFFFFFFFFFFFFFFF AND PUSH4 0xA9059CBB CALLER DUP7 PUSH1 0x40 MLOAD DUP4 PUSH4 0xFFFFFFFF AND PUSH1 0xE0 SHL DUP2 MSTORE PUSH1 0x4 ADD PUSH2 0x1770 SWAP3 SWAP2 SWAP1 PUSH2 0x2B67 JUMP JUMPDEST PUSH1 0x20 PUSH1 0x40 MLOAD DUP1 DUP4 SUB DUP2 PUSH0 DUP8 GAS CALL ISZERO DUP1 ISZERO PUSH2 0x178C JUMPI RETURNDATASIZE PUSH0 DUP1 RETURNDATACOPY RETURNDATASIZE PUSH0 REVERT JUMPDEST POP POP POP POP PUSH1 0x40 MLOAD RETURNDATASIZE PUSH1 0x1F NOT PUSH1 0x1F DUP3 ADD AND DUP3 ADD DUP1 PUSH1 0x40 MSTORE POP DUP2 ADD SWAP1 PUSH2 0x17B0 SWAP2 SWAP1 PUSH2 0x2D19 JUMP JUMPDEST POP PUSH0 DUP7 SUB PUSH2 0x17BF JUMPI POP POP PUSH2 0x17CF JUMP JUMPDEST JUMPDEST POP POP DUP1 DUP1 PUSH1 0x1 ADD SWAP2 POP POP PUSH2 0x155E JUMP JUMPDEST POP PUSH0 DUP4 EQ PUSH2 0x1812 JUMPI PUSH1 0x40 MLOAD PUSH32 0x8C379A000000000000000000000000000000000000000000000000000000000 DUP2 MSTORE PUSH1 0x4 ADD PUSH2 0x1809 SWAP1 PUSH2 0x2D8E JUMP JUMPDEST PUSH1 0x40 MLOAD DUP1 SWAP2 SUB SWAP1 REVERT JUMPDEST POP POP POP POP POP POP POP JUMP JUMPDEST PUSH1 0xE SLOAD DUP2 JUMP JUMPDEST PUSH0 DUP1 SLOAD SWAP1 PUSH2 0x100 EXP SWAP1 DIV PUSH20 0xFFFFFFFFFFFFFFFFFFFFFFFFFFFFFFFFFFFFFFFF AND PUSH20 0xFFFFFFFFFFFFFFFFFFFFFFFFFFFFFFFFFFFFFFFF AND CALLER PUSH20 0xFFFFFFFFFFFFFFFFFFFFFFFFFFFFFFFFFFFFFFFF AND EQ PUSH2 0x18AE JUMPI PUSH1 0x40 MLOAD PUSH32 0x8C379A000000000000000000000000000000000000000000000000000000000 DUP2 MSTORE PUSH1 0x4 ADD PUSH2 0x18A5 SWAP1 PUSH2 0x281D JUMP JUMPDEST PUSH1 0x40 MLOAD DUP1 SWAP2 SUB SWAP1 REVERT JUMPDEST PUSH0 DUP2 GT PUSH2 0x18F0 JUMPI PUSH1 0x40 MLOAD PUSH32 0x8C379A000000000000000000000000000000000000000000000000000000000 DUP2 MSTORE PUSH1 0x4 ADD PUSH2 0x18E7 SWAP1 PUSH2 0x2885 JUMP JUMPDEST PUSH1 0x40 MLOAD DUP1 SWAP2 SUB SWAP1 REVERT JUMPDEST PUSH0 PUSH1 0xB DUP4 PUSH1 0x40 MLOAD PUSH2 0x1901 SWAP2 SWAP1 PUSH2 0x28F5 JUMP JUMPDEST SWAP1 DUP2 MSTORE PUSH1 0x20 ADD PUSH1 0x40 MLOAD DUP1 SWAP2 SUB SWAP1 KECCAK256 SLOAD GT PUSH2 0x1950 JUMPI PUSH1 0x40 MLOAD PUSH32 0x8C379A000000000000000000000000000000000000000000000000000000000 DUP2 MSTORE PUSH1 0x4 ADD PUSH2 0x1947 SWAP1 PUSH2 0x2955 JUMP JUMPDEST PUSH1 0x40 MLOAD DUP1 SWAP2 SUB SWAP1 REVERT JUMPDEST DUP1 PUSH1 0xC DUP4 PUSH1 0x40 MLOAD PUSH2 0x1961 SWAP2 SWAP1 PUSH2 0x28F5 JUMP JUMPDEST SWAP1 DUP2 MSTORE PUSH1 0x20 ADD PUSH1 0x40 MLOAD DUP1 SWAP2 SUB SWAP1 KECCAK256 DUP2 SWAP1 SSTORE POP POP POP JUMP JUMPDEST PUSH1 0x6 PUSH0 SWAP1 SLOAD SWAP1 PUSH2 0x100 EXP SWAP1 DIV PUSH20 0xFFFFFFFFFFFFFFFFFFFFFFFFFFFFFFFFFFFFFFFF AND DUP2 JUMP JUMPDEST PUSH1 0xC DUP2 DUP1 MLOAD PUSH1 0x20 DUP2 ADD DUP3 ADD DUP1 MLOAD DUP5 DUP3 MSTORE PUSH1 0x20 DUP4 ADD PUSH1 0x20 DUP6 ADD KECCAK256 DUP2 DUP4 MSTORE DUP1 SWAP6 POP POP POP POP POP POP PUSH0 SWAP2 POP SWAP1 POP SLOAD DUP2 JUMP JUMPDEST DUP1 MLOAD DUP3 MLOAD EQ PUSH2 0x1A0D JUMPI PUSH1 0x40 MLOAD PUSH32 0x8C379A000000000000000000000000000000000000000000000000000000000 DUP2 MSTORE PUSH1 0x4 ADD PUSH2 0x1A04 SWAP1 PUSH2 0x2DF6 JUMP JUMPDEST PUSH1 0x40 MLOAD DUP1 SWAP2 SUB SWAP1 REVERT JUMPDEST PUSH0 DUP1 JUMPDEST DUP4 MLOAD DUP2 LT ISZERO PUSH2 0x1DE0 JUMPI PUSH0 DUP5 DUP3 DUP2 MLOAD DUP2 LT PUSH2 0x1A2D JUMPI PUSH2 0x1A2C PUSH2 0x2B8E JUMP JUMPDEST JUMPDEST PUSH1 0x20 MUL PUSH1 0x20 ADD ADD MLOAD SWAP1 POP PUSH0 DUP5 DUP4 DUP2 MLOAD DUP2 LT PUSH2 0x1A4B JUMPI PUSH2 0x1A4A PUSH2 0x2B8E JUMP JUMPDEST JUMPDEST PUSH1 0x20 MUL PUSH1 0x20 ADD ADD MLOAD SWAP1 POP PUSH0 PUSH1 0xB DUP4 PUSH1 0x40 MLOAD PUSH2 0x1A66 SWAP2 SWAP1 PUSH2 0x28F5 JUMP JUMPDEST SWAP1 DUP2 MSTORE PUSH1 0x20 ADD PUSH1 0x40 MLOAD DUP1 SWAP2 SUB SWAP1 KECCAK256 SLOAD GT PUSH2 0x1AB5 JUMPI PUSH1 0x40 MLOAD PUSH32 0x8C379A000000000000000000000000000000000000000000000000000000000 DUP2 MSTORE PUSH1 0x4 ADD PUSH2 0x1AAC SWAP1 PUSH2 0x2955 JUMP JUMPDEST PUSH1 0x40 MLOAD DUP1 SWAP2 SUB SWAP1 REVERT JUMPDEST PUSH0 PUSH20 0xFFFFFFFFFFFFFFFFFFFFFFFFFFFFFFFFFFFFFFFF AND PUSH1 0xA DUP4 PUSH1 0x40 MLOAD PUSH2 0x1ADC SWAP2 SWAP1 PUSH2 0x28F5 JUMP JUMPDEST SWAP1 DUP2 MSTORE PUSH1 0x20 ADD PUSH1 0x40 MLOAD DUP1 SWAP2 SUB SWAP1 KECCAK256 PUSH0 SWAP1 SLOAD SWAP1 PUSH2 0x100 EXP SWAP1 DIV PUSH20 0xFFFFFFFFFFFFFFFFFFFFFFFFFFFFFFFFFFFFFFFF AND PUSH20 0xFFFFFFFFFFFFFFFFFFFFFFFFFFFFFFFFFFFFFFFF AND SUB PUSH2 0x1B60 JUMPI PUSH1 0x40 MLOAD PUSH32 0x8C379A000000000000000000000000000000000000000000000000000000000 DUP2 MSTORE PUSH1 0x4 ADD PUSH2 0x1B57 SWAP1 PUSH2 0x2E5E JUMP JUMPDEST PUSH1 0x40 MLOAD DUP1 SWAP2 SUB SWAP1 REVERT JUMPDEST PUSH0 PUSH1 0xA DUP4 PUSH1 0x40 MLOAD PUSH2 0x1B71 SWAP2 SWAP1 PUSH2 0x28F5 JUMP JUMPDEST SWAP1 DUP2 MSTORE PUSH1 0x20 ADD PUSH1 0x40 MLOAD DUP1 SWAP2 SUB SWAP1 KECCAK256 PUSH0 SWAP1 SLOAD SWAP1 PUSH2 0x100 EXP SWAP1 DIV PUSH20 0xFFFFFFFFFFFFFFFFFFFFFFFFFFFFFFFFFFFFFFFF AND PUSH20 0xFFFFFFFFFFFFFFFFFFFFFFFFFFFFFFFFFFFFFFFF AND PUSH4 0xDD62ED3E CALLER ADDRESS PUSH1 0x40 MLOAD DUP4 PUSH4 0xFFFFFFFF AND PUSH1 0xE0 SHL DUP2 MSTORE PUSH1 0x4 ADD PUSH2 0x1BD9 SWAP3 SWAP2 SWAP1 PUSH2 0x2776 JUMP JUMPDEST PUSH1 0x20 PUSH1 0x40 MLOAD DUP1 DUP4 SUB DUP2 DUP7 GAS STATICCALL ISZERO DUP1 ISZERO PUSH2 0x1BF4 JUMPI RETURNDATASIZE PUSH0 DUP1 RETURNDATACOPY RETURNDATASIZE PUSH0 REVERT JUMPDEST POP POP POP POP PUSH1 0x40 MLOAD RETURNDATASIZE PUSH1 0x1F NOT PUSH1 0x1F DUP3 ADD AND DUP3 ADD DUP1 PUSH1 0x40 MSTORE POP DUP2 ADD SWAP1 PUSH2 0x1C18 SWAP2 SWAP1 PUSH2 0x274B JUMP JUMPDEST SWAP1 POP DUP2 DUP2 LT ISZERO PUSH2 0x1C5D JUMPI PUSH1 0x40 MLOAD PUSH32 0x8C379A000000000000000000000000000000000000000000000000000000000 DUP2 MSTORE PUSH1 0x4 ADD PUSH2 0x1C54 SWAP1 PUSH2 0x2EC6 JUMP JUMPDEST PUSH1 0x40 MLOAD DUP1 SWAP2 SUB SWAP1 REVERT JUMPDEST PUSH1 0xA DUP4 PUSH1 0x40 MLOAD PUSH2 0x1C6D SWAP2 SWAP1 PUSH2 0x28F5 JUMP JUMPDEST SWAP1 DUP2 MSTORE PUSH1 0x20 ADD PUSH1 0x40 MLOAD DUP1 SWAP2 SUB SWAP1 KECCAK256 PUSH0 SWAP1 SLOAD SWAP1 PUSH2 0x100 EXP SWAP1 DIV PUSH20 0xFFFFFFFFFFFFFFFFFFFFFFFFFFFFFFFFFFFFFFFF AND PUSH20 0xFFFFFFFFFFFFFFFFFFFFFFFFFFFFFFFFFFFFFFFF AND PUSH4 0x23B872DD CALLER ADDRESS DUP6 PUSH1 0x40 MLOAD DUP5 PUSH4 0xFFFFFFFF AND PUSH1 0xE0 SHL DUP2 MSTORE PUSH1 0x4 ADD PUSH2 0x1CD7 SWAP4 SWAP3 SWAP2 SWAP1 PUSH2 0x2EE4 JUMP JUMPDEST PUSH1 0x20 PUSH1 0x40 MLOAD DUP1 DUP4 SUB DUP2 PUSH0 DUP8 GAS CALL ISZERO DUP1 ISZERO PUSH2 0x1CF3 JUMPI RETURNDATASIZE PUSH0 DUP1 RETURNDATACOPY RETURNDATASIZE PUSH0 REVERT JUMPDEST POP POP POP POP PUSH1 0x40 MLOAD RETURNDATASIZE PUSH1 0x1F NOT PUSH1 0x1F DUP3 ADD AND DUP3 ADD DUP1 PUSH1 0x40 MSTORE POP DUP2 ADD SWAP1 PUSH2 0x1D17 SWAP2 SWAP1 PUSH2 0x2D19 JUMP JUMPDEST POP PUSH0 PUSH2 0x3E8 PUSH1 0xB DUP6 PUSH1 0x40 MLOAD PUSH2 0x1D2C SWAP2 SWAP1 PUSH2 0x28F5 JUMP JUMPDEST SWAP1 DUP2 MSTORE PUSH1 0x20 ADD PUSH1 0x40 MLOAD DUP1 SWAP2 SUB SWAP1 KECCAK256 SLOAD DUP5 PUSH2 0x1D46 SWAP2 SWAP1 PUSH2 0x29A0 JUMP JUMPDEST PUSH2 0x1D50 SWAP2 SWAP1 PUSH2 0x2A0E JUMP JUMPDEST SWAP1 POP DUP1 DUP7 PUSH2 0x1D5E SWAP2 SWAP1 PUSH2 0x2ACC JUMP JUMPDEST SWAP6 POP DUP3 PUSH1 0xD PUSH0 CALLER PUSH20 0xFFFFFFFFFFFFFFFFFFFFFFFFFFFFFFFFFFFFFFFF AND PUSH20 0xFFFFFFFFFFFFFFFFFFFFFFFFFFFFFFFFFFFFFFFF AND DUP2 MSTORE PUSH1 0x20 ADD SWAP1 DUP2 MSTORE PUSH1 0x20 ADD PUSH0 KECCAK256 DUP6 PUSH1 0x40 MLOAD PUSH2 0x1DAC SWAP2 SWAP1 PUSH2 0x28F5 JUMP JUMPDEST SWAP1 DUP2 MSTORE PUSH1 0x20 ADD PUSH1 0x40 MLOAD DUP1 SWAP2 SUB SWAP1 KECCAK256 PUSH0 DUP3 DUP3 SLOAD PUSH2 0x1DC8 SWAP2 SWAP1 PUSH2 0x2ACC JUMP JUMPDEST SWAP3 POP POP DUP2 SWAP1 SSTORE POP POP POP POP POP DUP1 DUP1 PUSH1 0x1 ADD SWAP2 POP POP PUSH2 0x1A10 JUMP JUMPDEST POP PUSH0 PUSH1 0xE SLOAD PUSH1 0x64 DUP4 PUSH2 0x1DF2 SWAP2 SWAP1 PUSH2 0x29A0 JUMP JUMPDEST PUSH2 0x1DFC SWAP2 SWAP1 PUSH2 0x2A0E JUMP JUMPDEST SWAP1 POP PUSH0 DUP2 GT PUSH2 0x1E40 JUMPI PUSH1 0x40 MLOAD PUSH32 0x8C379A000000000000000000000000000000000000000000000000000000000 DUP2 MSTORE PUSH1 0x4 ADD PUSH2 0x1E37 SWAP1 PUSH2 0x2F89 JUMP JUMPDEST PUSH1 0x40 MLOAD DUP1 SWAP2 SUB SWAP1 REVERT JUMPDEST PUSH1 0x1 PUSH0 SWAP1 SLOAD SWAP1 PUSH2 0x100 EXP SWAP1 DIV PUSH20 0xFFFFFFFFFFFFFFFFFFFFFFFFFFFFFFFFFFFFFFFF AND PUSH20 0xFFFFFFFFFFFFFFFFFFFFFFFFFFFFFFFFFFFFFFFF AND PUSH4 0x40C10F19 CALLER DUP4 PUSH1 0x40 MLOAD DUP4 PUSH4 0xFFFFFFFF AND PUSH1 0xE0 SHL DUP2 MSTORE PUSH1 0x4 ADD PUSH2 0x1E9C SWAP3 SWAP2 SWAP1 PUSH2 0x2B67 JUMP JUMPDEST PUSH0 PUSH1 0x40 MLOAD DUP1 DUP4 SUB DUP2 PUSH0 DUP8 DUP1 EXTCODESIZE ISZERO DUP1 ISZERO PUSH2 0x1EB3 JUMPI PUSH0 DUP1 REVERT JUMPDEST POP GAS CALL ISZERO DUP1 ISZERO PUSH2 0x1EC5 JUMPI RETURNDATASIZE PUSH0 DUP1 RETURNDATACOPY RETURNDATASIZE PUSH0 REVERT JUMPDEST POP POP POP POP POP POP POP POP JUMP JUMPDEST PUSH1 0x4 PUSH0 SWAP1 SLOAD SWAP1 PUSH2 0x100 EXP SWAP1 DIV PUSH20 0xFFFFFFFFFFFFFFFFFFFFFFFFFFFFFFFFFFFFFFFF AND DUP2 JUMP JUMPDEST PUSH0 PUSH1 0xB DUP3 PUSH1 0x40 MLOAD PUSH2 0x1F05 SWAP2 SWAP1 PUSH2 0x28F5 JUMP JUMPDEST SWAP1 DUP2 MSTORE PUSH1 0x20 ADD PUSH1 0x40 MLOAD DUP1 SWAP2 SUB SWAP1 KECCAK256 SLOAD SWAP1 POP SWAP2 SWAP1 POP JUMP JUMPDEST PUSH1 0x7 PUSH0 SWAP1 SLOAD SWAP1 PUSH2 0x100 EXP SWAP1 DIV PUSH20 0xFFFFFFFFFFFFFFFFFFFFFFFFFFFFFFFFFFFFFFFF AND DUP2 JUMP JUMPDEST PUSH0 DUP1 SLOAD SWAP1 PUSH2 0x100 EXP SWAP1 DIV PUSH20 0xFFFFFFFFFFFFFFFFFFFFFFFFFFFFFFFFFFFFFFFF AND DUP2 JUMP JUMPDEST PUSH0 PUSH1 0x40 MLOAD SWAP1 POP SWAP1 JUMP JUMPDEST PUSH0 DUP1 REVERT JUMPDEST PUSH0 DUP1 REVERT JUMPDEST PUSH0 PUSH20 0xFFFFFFFFFFFFFFFFFFFFFFFFFFFFFFFFFFFFFFFF DUP3 AND SWAP1 POP SWAP2 SWAP1 POP JUMP JUMPDEST PUSH0 PUSH2 0x1F9D DUP3 PUSH2 0x1F74 JUMP JUMPDEST SWAP1 POP SWAP2 SWAP1 POP JUMP JUMPDEST PUSH2 0x1FAD DUP2 PUSH2 0x1F93 JUMP JUMPDEST DUP2 EQ PUSH2 0x1FB7 JUMPI PUSH0 DUP1 REVERT JUMPDEST POP JUMP JUMPDEST PUSH0 DUP2 CALLDATALOAD SWAP1 POP PUSH2 0x1FC8 DUP2 PUSH2 0x1FA4 JUMP JUMPDEST SWAP3 SWAP2 POP POP JUMP JUMPDEST PUSH0 PUSH1 0x20 DUP3 DUP5 SUB SLT ISZERO PUSH2 0x1FE3 JUMPI PUSH2 0x1FE2 PUSH2 0x1F6C JUMP JUMPDEST JUMPDEST PUSH0 PUSH2 0x1FF0 DUP5 DUP3 DUP6 ADD PUSH2 0x1FBA JUMP JUMPDEST SWAP2 POP POP SWAP3 SWAP2 POP POP JUMP JUMPDEST PUSH0 DUP2 SWAP1 POP SWAP2 SWAP1 POP JUMP JUMPDEST PUSH2 0x200B DUP2 PUSH2 0x1FF9 JUMP JUMPDEST DUP3 MSTORE POP POP JUMP JUMPDEST PUSH0 PUSH1 0x20 DUP3 ADD SWAP1 POP PUSH2 0x2024 PUSH0 DUP4 ADD DUP5 PUSH2 0x2002 JUMP JUMPDEST SWAP3 SWAP2 POP POP JUMP JUMPDEST PUSH0 DUP1 PUSH1 0x40 DUP4 DUP6 SUB SLT ISZERO PUSH2 0x2040 JUMPI PUSH2 0x203F PUSH2 0x1F6C JUMP JUMPDEST JUMPDEST PUSH0 PUSH2 0x204D DUP6 DUP3 DUP7 ADD PUSH2 0x1FBA JUMP JUMPDEST SWAP3 POP POP PUSH1 0x20 PUSH2 0x205E DUP6 DUP3 DUP7 ADD PUSH2 0x1FBA JUMP JUMPDEST SWAP2 POP POP SWAP3 POP SWAP3 SWAP1 POP JUMP JUMPDEST PUSH0 DUP2 SWAP1 POP SWAP2 SWAP1 POP JUMP JUMPDEST PUSH0 PUSH2 0x208B PUSH2 0x2086 PUSH2 0x2081 DUP5 PUSH2 0x1F74 JUMP JUMPDEST PUSH2 0x2068 JUMP JUMPDEST PUSH2 0x1F74 JUMP JUMPDEST SWAP1 POP SWAP2 SWAP1 POP JUMP JUMPDEST PUSH0 PUSH2 0x209C DUP3 PUSH2 0x2071 JUMP JUMPDEST SWAP1 POP SWAP2 SWAP1 POP JUMP JUMPDEST PUSH0 PUSH2 0x20AD DUP3 PUSH2 0x2092 JUMP JUMPDEST SWAP1 POP SWAP2 SWAP1 POP JUMP JUMPDEST PUSH2 0x20BD DUP2 PUSH2 0x20A3 JUMP JUMPDEST DUP3 MSTORE POP POP JUMP JUMPDEST PUSH0 PUSH1 0x20 DUP3 ADD SWAP1 POP PUSH2 0x20D6 PUSH0 DUP4 ADD DUP5 PUSH2 0x20B4 JUMP JUMPDEST SWAP3 SWAP2 POP POP JUMP JUMPDEST PUSH0 DUP1 REVERT JUMPDEST PUSH0 DUP1 REVERT JUMPDEST PUSH0 PUSH1 0x1F NOT PUSH1 0x1F DUP4 ADD AND SWAP1 POP SWAP2 SWAP1 POP JUMP JUMPDEST PUSH32 0x4E487B7100000000000000000000000000000000000000000000000000000000 PUSH0 MSTORE PUSH1 0x41 PUSH1 0x4 MSTORE PUSH1 0x24 PUSH0 REVERT JUMPDEST PUSH2 0x212A DUP3 PUSH2 0x20E4 JUMP JUMPDEST DUP2 ADD DUP2 DUP2 LT PUSH8 0xFFFFFFFFFFFFFFFF DUP3 GT OR ISZERO PUSH2 0x2149 JUMPI PUSH2 0x2148 PUSH2 0x20F4 JUMP JUMPDEST JUMPDEST DUP1 PUSH1 0x40 MSTORE POP POP POP JUMP JUMPDEST PUSH0 PUSH2 0x215B PUSH2 0x1F63 JUMP JUMPDEST SWAP1 POP PUSH2 0x2167 DUP3 DUP3 PUSH2 0x2121 JUMP JUMPDEST SWAP2 SWAP1 POP JUMP JUMPDEST PUSH0 PUSH8 0xFFFFFFFFFFFFFFFF DUP3 GT ISZERO PUSH2 0x2186 JUMPI PUSH2 0x2185 PUSH2 0x20F4 JUMP JUMPDEST JUMPDEST PUSH2 0x218F DUP3 PUSH2 0x20E4 JUMP JUMPDEST SWAP1 POP PUSH1 0x20 DUP2 ADD SWAP1 POP SWAP2 SWAP1 POP JUMP JUMPDEST DUP3 DUP2 DUP4 CALLDATACOPY PUSH0 DUP4 DUP4 ADD MSTORE POP POP POP JUMP JUMPDEST PUSH0 PUSH2 0x21BC PUSH2 0x21B7 DUP5 PUSH2 0x216C JUMP JUMPDEST PUSH2 0x2152 JUMP JUMPDEST SWAP1 POP DUP3 DUP2 MSTORE PUSH1 0x20 DUP2 ADD DUP5 DUP5 DUP5 ADD GT ISZERO PUSH2 0x21D8 JUMPI PUSH2 0x21D7 PUSH2 0x20E0 JUMP JUMPDEST JUMPDEST PUSH2 0x21E3 DUP5 DUP3 DUP6 PUSH2 0x219C JUMP JUMPDEST POP SWAP4 SWAP3 POP POP POP JUMP JUMPDEST PUSH0 DUP3 PUSH1 0x1F DUP4 ADD SLT PUSH2 0x21FF JUMPI PUSH2 0x21FE PUSH2 0x20DC JUMP JUMPDEST JUMPDEST DUP2 CALLDATALOAD PUSH2 0x220F DUP5 DUP3 PUSH1 0x20 DUP7 ADD PUSH2 0x21AA JUMP JUMPDEST SWAP2 POP POP SWAP3 SWAP2 POP POP JUMP JUMPDEST PUSH0 DUP1 PUSH1 0x40 DUP4 DUP6 SUB SLT ISZERO PUSH2 0x222E JUMPI PUSH2 0x222D PUSH2 0x1F6C JUMP JUMPDEST JUMPDEST PUSH0 PUSH2 0x223B DUP6 DUP3 DUP7 ADD PUSH2 0x1FBA JUMP JUMPDEST SWAP3 POP POP PUSH1 0x20 DUP4 ADD CALLDATALOAD PUSH8 0xFFFFFFFFFFFFFFFF DUP2 GT ISZERO PUSH2 0x225C JUMPI PUSH2 0x225B PUSH2 0x1F70 JUMP JUMPDEST JUMPDEST PUSH2 0x2268 DUP6 DUP3 DUP7 ADD PUSH2 0x21EB JUMP JUMPDEST SWAP2 POP POP SWAP3 POP SWAP3 SWAP1 POP JUMP JUMPDEST PUSH2 0x227B DUP2 PUSH2 0x1FF9 JUMP JUMPDEST DUP2 EQ PUSH2 0x2285 JUMPI PUSH0 DUP1 REVERT JUMPDEST POP JUMP JUMPDEST PUSH0 DUP2 CALLDATALOAD SWAP1 POP PUSH2 0x2296 DUP2 PUSH2 0x2272 JUMP JUMPDEST SWAP3 SWAP2 POP POP JUMP JUMPDEST PUSH0 DUP1 PUSH1 0x40 DUP4 DUP6 SUB SLT ISZERO PUSH2 0x22B2 JUMPI PUSH2 0x22B1 PUSH2 0x1F6C JUMP JUMPDEST JUMPDEST PUSH0 DUP4 ADD CALLDATALOAD PUSH8 0xFFFFFFFFFFFFFFFF DUP2 GT ISZERO PUSH2 0x22CF JUMPI PUSH2 0x22CE PUSH2 0x1F70 JUMP JUMPDEST JUMPDEST PUSH2 0x22DB DUP6 DUP3 DUP7 ADD PUSH2 0x21EB JUMP JUMPDEST SWAP3 POP POP PUSH1 0x20 PUSH2 0x22EC DUP6 DUP3 DUP7 ADD PUSH2 0x2288 JUMP JUMPDEST SWAP2 POP POP SWAP3 POP SWAP3 SWAP1 POP JUMP JUMPDEST PUSH0 PUSH2 0x2300 DUP3 PUSH2 0x2092 JUMP JUMPDEST SWAP1 POP SWAP2 SWAP1 POP JUMP JUMPDEST PUSH2 0x2310 DUP2 PUSH2 0x22F6 JUMP JUMPDEST DUP3 MSTORE POP POP JUMP JUMPDEST PUSH0 PUSH1 0x20 DUP3 ADD SWAP1 POP PUSH2 0x2329 PUSH0 DUP4 ADD DUP5 PUSH2 0x2307 JUMP JUMPDEST SWAP3 SWAP2 POP POP JUMP JUMPDEST PUSH0 PUSH1 0x20 DUP3 DUP5 SUB SLT ISZERO PUSH2 0x2344 JUMPI PUSH2 0x2343 PUSH2 0x1F6C JUMP JUMPDEST JUMPDEST PUSH0 PUSH2 0x2351 DUP5 DUP3 DUP6 ADD PUSH2 0x2288 JUMP JUMPDEST SWAP2 POP POP SWAP3 SWAP2 POP POP JUMP JUMPDEST PUSH0 PUSH1 0x20 DUP3 DUP5 SUB SLT ISZERO PUSH2 0x236F JUMPI PUSH2 0x236E PUSH2 0x1F6C JUMP JUMPDEST JUMPDEST PUSH0 DUP3 ADD CALLDATALOAD PUSH8 0xFFFFFFFFFFFFFFFF DUP2 GT ISZERO PUSH2 0x238C JUMPI PUSH2 0x238B PUSH2 0x1F70 JUMP JUMPDEST JUMPDEST PUSH2 0x2398 DUP5 DUP3 DUP6 ADD PUSH2 0x21EB JUMP JUMPDEST SWAP2 POP POP SWAP3 SWAP2 POP POP JUMP JUMPDEST PUSH0 PUSH2 0x23AB DUP3 PUSH2 0x2092 JUMP JUMPDEST SWAP1 POP SWAP2 SWAP1 POP JUMP JUMPDEST PUSH2 0x23BB DUP2 PUSH2 0x23A1 JUMP JUMPDEST DUP3 MSTORE POP POP JUMP JUMPDEST PUSH0 PUSH1 0x20 DUP3 ADD SWAP1 POP PUSH2 0x23D4 PUSH0 DUP4 ADD DUP5 PUSH2 0x23B2 JUMP JUMPDEST SWAP3 SWAP2 POP POP JUMP JUMPDEST PUSH2 0x23E3 DUP2 PUSH2 0x1F93 JUMP JUMPDEST DUP3 MSTORE POP POP JUMP JUMPDEST PUSH0 PUSH1 0x20 DUP3 ADD SWAP1 POP PUSH2 0x23FC PUSH0 DUP4 ADD DUP5 PUSH2 0x23DA JUMP JUMPDEST SWAP3 SWAP2 POP POP JUMP JUMPDEST PUSH0 PUSH2 0x240C DUP3 PUSH2 0x2092 JUMP JUMPDEST SWAP1 POP SWAP2 SWAP1 POP JUMP JUMPDEST PUSH2 0x241C DUP2 PUSH2 0x2402 JUMP JUMPDEST DUP3 MSTORE POP POP JUMP JUMPDEST PUSH0 PUSH1 0x20 DUP3 ADD SWAP1 POP PUSH2 0x2435 PUSH0 DUP4 ADD DUP5 PUSH2 0x2413 JUMP JUMPDEST SWAP3 SWAP2 POP POP JUMP JUMPDEST PUSH0 PUSH2 0x2445 DUP3 PUSH2 0x2092 JUMP JUMPDEST SWAP1 POP SWAP2 SWAP1 POP JUMP JUMPDEST PUSH2 0x2455 DUP2 PUSH2 0x243B JUMP JUMPDEST DUP3 MSTORE POP POP JUMP JUMPDEST PUSH0 PUSH1 0x20 DUP3 ADD SWAP1 POP PUSH2 0x246E PUSH0 DUP4 ADD DUP5 PUSH2 0x244C JUMP JUMPDEST SWAP3 SWAP2 POP POP JUMP JUMPDEST PUSH0 PUSH2 0x247E DUP3 PUSH2 0x2092 JUMP JUMPDEST SWAP1 POP SWAP2 SWAP1 POP JUMP JUMPDEST PUSH2 0x248E DUP2 PUSH2 0x2474 JUMP JUMPDEST DUP3 MSTORE POP POP JUMP JUMPDEST PUSH0 PUSH1 0x20 DUP3 ADD SWAP1 POP PUSH2 0x24A7 PUSH0 DUP4 ADD DUP5 PUSH2 0x2485 JUMP JUMPDEST SWAP3 SWAP2 POP POP JUMP JUMPDEST PUSH0 PUSH8 0xFFFFFFFFFFFFFFFF DUP3 GT ISZERO PUSH2 0x24C7 JUMPI PUSH2 0x24C6 PUSH2 0x20F4 JUMP JUMPDEST JUMPDEST PUSH1 0x20 DUP3 MUL SWAP1 POP PUSH1 0x20 DUP2 ADD SWAP1 POP SWAP2 SWAP1 POP JUMP JUMPDEST PUSH0 DUP1 REVERT JUMPDEST PUSH0 PUSH2 0x24EE PUSH2 0x24E9 DUP5 PUSH2 0x24AD JUMP JUMPDEST PUSH2 0x2152 JUMP JUMPDEST SWAP1 POP DUP1 DUP4 DUP3 MSTORE PUSH1 0x20 DUP3 ADD SWAP1 POP PUSH1 0x20 DUP5 MUL DUP4 ADD DUP6 DUP2 GT ISZERO PUSH2 0x2511 JUMPI PUSH2 0x2510 PUSH2 0x24D8 JUMP JUMPDEST JUMPDEST DUP4 JUMPDEST DUP2 DUP2 LT ISZERO PUSH2 0x2558 JUMPI DUP1 CALLDATALOAD PUSH8 0xFFFFFFFFFFFFFFFF DUP2 GT ISZERO PUSH2 0x2536 JUMPI PUSH2 0x2535 PUSH2 0x20DC JUMP JUMPDEST JUMPDEST DUP1 DUP7 ADD PUSH2 0x2543 DUP10 DUP3 PUSH2 0x21EB JUMP JUMPDEST DUP6 MSTORE PUSH1 0x20 DUP6 ADD SWAP5 POP POP POP PUSH1 0x20 DUP2 ADD SWAP1 POP PUSH2 0x2513 JUMP JUMPDEST POP POP POP SWAP4 SWAP3 POP POP POP JUMP JUMPDEST PUSH0 DUP3 PUSH1 0x1F DUP4 ADD SLT PUSH2 0x2576 JUMPI PUSH2 0x2575 PUSH2 0x20DC JUMP JUMPDEST JUMPDEST DUP2 CALLDATALOAD PUSH2 0x2586 DUP5 DUP3 PUSH1 0x20 DUP7 ADD PUSH2 0x24DC JUMP JUMPDEST SWAP2 POP POP SWAP3 SWAP2 POP POP JUMP JUMPDEST PUSH0 PUSH8 0xFFFFFFFFFFFFFFFF DUP3 GT ISZERO PUSH2 0x25A9 JUMPI PUSH2 0x25A8 PUSH2 0x20F4 JUMP JUMPDEST JUMPDEST PUSH1 0x20 DUP3 MUL SWAP1 POP PUSH1 0x20 DUP2 ADD SWAP1 POP SWAP2 SWAP1 POP JUMP JUMPDEST PUSH0 PUSH2 0x25CC PUSH2 0x25C7 DUP5 PUSH2 0x258F JUMP JUMPDEST PUSH2 0x2152 JUMP JUMPDEST SWAP1 POP DUP1 DUP4 DUP3 MSTORE PUSH1 0x20 DUP3 ADD SWAP1 POP PUSH1 0x20 DUP5 MUL DUP4 ADD DUP6 DUP2 GT ISZERO PUSH2 0x25EF JUMPI PUSH2 0x25EE PUSH2 0x24D8 JUMP JUMPDEST JUMPDEST DUP4 JUMPDEST DUP2 DUP2 LT ISZERO PUSH2 0x2618 JUMPI DUP1 PUSH2 0x2604 DUP9 DUP3 PUSH2 0x2288 JUMP JUMPDEST DUP5 MSTORE PUSH1 0x20 DUP5 ADD SWAP4 POP POP PUSH1 0x20 DUP2 ADD SWAP1 POP PUSH2 0x25F1 JUMP JUMPDEST POP POP POP SWAP4 SWAP3 POP POP POP JUMP JUMPDEST PUSH0 DUP3 PUSH1 0x1F DUP4 ADD SLT PUSH2 0x2636 JUMPI PUSH2 0x2635 PUSH2 0x20DC JUMP JUMPDEST JUMPDEST DUP2 CALLDATALOAD PUSH2 0x2646 DUP5 DUP3 PUSH1 0x20 DUP7 ADD PUSH2 0x25BA JUMP JUMPDEST SWAP2 POP POP SWAP3 SWAP2 POP POP JUMP JUMPDEST PUSH0 DUP1 PUSH1 0x40 DUP4 DUP6 SUB SLT ISZERO PUSH2 0x2665 JUMPI PUSH2 0x2664 PUSH2 0x1F6C JUMP JUMPDEST JUMPDEST PUSH0 DUP4 ADD CALLDATALOAD PUSH8 0xFFFFFFFFFFFFFFFF DUP2 GT ISZERO PUSH2 0x2682 JUMPI PUSH2 0x2681 PUSH2 0x1F70 JUMP JUMPDEST JUMPDEST PUSH2 0x268E DUP6 DUP3 DUP7 ADD PUSH2 0x2562 JUMP JUMPDEST SWAP3 POP POP PUSH1 0x20 DUP4 ADD CALLDATALOAD PUSH8 0xFFFFFFFFFFFFFFFF DUP2 GT ISZERO PUSH2 0x26AF JUMPI PUSH2 0x26AE PUSH2 0x1F70 JUMP JUMPDEST JUMPDEST PUSH2 0x26BB DUP6 DUP3 DUP7 ADD PUSH2 0x2622 JUMP JUMPDEST SWAP2 POP POP SWAP3 POP SWAP3 SWAP1 POP JUMP JUMPDEST PUSH0 PUSH2 0x26CF DUP3 PUSH2 0x2092 JUMP JUMPDEST SWAP1 POP SWAP2 SWAP1 POP JUMP JUMPDEST PUSH2 0x26DF DUP2 PUSH2 0x26C5 JUMP JUMPDEST DUP3 MSTORE POP POP JUMP JUMPDEST PUSH0 PUSH1 0x20 DUP3 ADD SWAP1 POP PUSH2 0x26F8 PUSH0 DUP4 ADD DUP5 PUSH2 0x26D6 JUMP JUMPDEST SWAP3 SWAP2 POP POP JUMP JUMPDEST PUSH0 PUSH2 0x2708 DUP3 PUSH2 0x2092 JUMP JUMPDEST SWAP1 POP SWAP2 SWAP1 POP JUMP JUMPDEST PUSH2 0x2718 DUP2 PUSH2 0x26FE JUMP JUMPDEST DUP3 MSTORE POP POP JUMP JUMPDEST PUSH0 PUSH1 0x20 DUP3 ADD SWAP1 POP PUSH2 0x2731 PUSH0 DUP4 ADD DUP5 PUSH2 0x270F JUMP JUMPDEST SWAP3 SWAP2 POP POP JUMP JUMPDEST PUSH0 DUP2 MLOAD SWAP1 POP PUSH2 0x2745 DUP2 PUSH2 0x2272 JUMP JUMPDEST SWAP3 SWAP2 POP POP JUMP JUMPDEST PUSH0 PUSH1 0x20 DUP3 DUP5 SUB SLT ISZERO PUSH2 0x2760 JUMPI PUSH2 0x275F PUSH2 0x1F6C JUMP JUMPDEST JUMPDEST PUSH0 PUSH2 0x276D DUP5 DUP3 DUP6 ADD PUSH2 0x2737 JUMP JUMPDEST SWAP2 POP POP SWAP3 SWAP2 POP POP JUMP JUMPDEST PUSH0 PUSH1 0x40 DUP3 ADD SWAP1 POP PUSH2 0x2789 PUSH0 DUP4 ADD DUP6 PUSH2 0x23DA JUMP JUMPDEST PUSH2 0x2796 PUSH1 0x20 DUP4 ADD DUP5 PUSH2 0x23DA JUMP JUMPDEST SWAP4 SWAP3 POP POP POP JUMP JUMPDEST PUSH0 DUP3 DUP3 MSTORE PUSH1 0x20 DUP3 ADD SWAP1 POP SWAP3 SWAP2 POP POP JUMP JUMPDEST PUSH32 0x4F6E6C79206665652041646D696E2063616E2075706461746520746865206665 PUSH0 DUP3 ADD MSTORE PUSH32 0x6520726174650000000000000000000000000000000000000000000000000000 PUSH1 0x20 DUP3 ADD MSTORE POP JUMP JUMPDEST PUSH0 PUSH2 0x2807 PUSH1 0x26 DUP4 PUSH2 0x279D JUMP JUMPDEST SWAP2 POP PUSH2 0x2812 DUP3 PUSH2 0x27AD JUMP JUMPDEST PUSH1 0x40 DUP3 ADD SWAP1 POP SWAP2 SWAP1 POP JUMP JUMPDEST PUSH0 PUSH1 0x20 DUP3 ADD SWAP1 POP DUP2 DUP2 SUB PUSH0 DUP4 ADD MSTORE PUSH2 0x2834 DUP2 PUSH2 0x27FB JUMP JUMPDEST SWAP1 POP SWAP2 SWAP1 POP JUMP JUMPDEST PUSH32 0x52617465206D7573742062652067726561746572207468616E20300000000000 PUSH0 DUP3 ADD MSTORE POP JUMP JUMPDEST PUSH0 PUSH2 0x286F PUSH1 0x1B DUP4 PUSH2 0x279D JUMP JUMPDEST SWAP2 POP PUSH2 0x287A DUP3 PUSH2 0x283B JUMP JUMPDEST PUSH1 0x20 DUP3 ADD SWAP1 POP SWAP2 SWAP1 POP JUMP JUMPDEST PUSH0 PUSH1 0x20 DUP3 ADD SWAP1 POP DUP2 DUP2 SUB PUSH0 DUP4 ADD MSTORE PUSH2 0x289C DUP2 PUSH2 0x2863 JUMP JUMPDEST SWAP1 POP SWAP2 SWAP1 POP JUMP JUMPDEST PUSH0 DUP2 MLOAD SWAP1 POP SWAP2 SWAP1 POP JUMP JUMPDEST PUSH0 DUP2 SWAP1 POP SWAP3 SWAP2 POP POP JUMP JUMPDEST DUP3 DUP2 DUP4 MCOPY PUSH0 DUP4 DUP4 ADD MSTORE POP POP POP JUMP JUMPDEST PUSH0 PUSH2 0x28CF DUP3 PUSH2 0x28A3 JUMP JUMPDEST PUSH2 0x28D9 DUP2 DUP6 PUSH2 0x28AD JUMP JUMPDEST SWAP4 POP PUSH2 0x28E9 DUP2 DUP6 PUSH1 0x20 DUP7 ADD PUSH2 0x28B7 JUMP JUMPDEST DUP1 DUP5 ADD SWAP2 POP POP SWAP3 SWAP2 POP POP JUMP JUMPDEST PUSH0 PUSH2 0x2900 DUP3 DUP5 PUSH2 0x28C5 JUMP JUMPDEST SWAP2 POP DUP2 SWAP1 POP SWAP3 SWAP2 POP POP JUMP JUMPDEST PUSH32 0x556E737570706F72746564204342444300000000000000000000000000000000 PUSH0 DUP3 ADD MSTORE POP JUMP JUMPDEST PUSH0 PUSH2 0x293F PUSH1 0x10 DUP4 PUSH2 0x279D JUMP JUMPDEST SWAP2 POP PUSH2 0x294A DUP3 PUSH2 0x290B JUMP JUMPDEST PUSH1 0x20 DUP3 ADD SWAP1 POP SWAP2 SWAP1 POP JUMP JUMPDEST PUSH0 PUSH1 0x20 DUP3 ADD SWAP1 POP DUP2 DUP2 SUB PUSH0 DUP4 ADD MSTORE PUSH2 0x296C DUP2 PUSH2 0x2933 JUMP JUMPDEST SWAP1 POP SWAP2 SWAP1 POP JUMP JUMPDEST PUSH32 0x4E487B7100000000000000000000000000000000000000000000000000000000 PUSH0 MSTORE PUSH1 0x11 PUSH1 0x4 MSTORE PUSH1 0x24 PUSH0 REVERT JUMPDEST PUSH0 PUSH2 0x29AA DUP3 PUSH2 0x1FF9 JUMP JUMPDEST SWAP2 POP PUSH2 0x29B5 DUP4 PUSH2 0x1FF9 JUMP JUMPDEST SWAP3 POP DUP3 DUP3 MUL PUSH2 0x29C3 DUP2 PUSH2 0x1FF9 JUMP JUMPDEST SWAP2 POP DUP3 DUP3 DIV DUP5 EQ DUP4 ISZERO OR PUSH2 0x29DA JUMPI PUSH2 0x29D9 PUSH2 0x2973 JUMP JUMPDEST JUMPDEST POP SWAP3 SWAP2 POP POP JUMP JUMPDEST PUSH32 0x4E487B7100000000000000000000000000000000000000000000000000000000 PUSH0 MSTORE PUSH1 0x12 PUSH1 0x4 MSTORE PUSH1 0x24 PUSH0 REVERT JUMPDEST PUSH0 PUSH2 0x2A18 DUP3 PUSH2 0x1FF9 JUMP JUMPDEST SWAP2 POP PUSH2 0x2A23 DUP4 PUSH2 0x1FF9 JUMP JUMPDEST SWAP3 POP DUP3 PUSH2 0x2A33 JUMPI PUSH2 0x2A32 PUSH2 0x29E1 JUMP JUMPDEST JUMPDEST DUP3 DUP3 DIV SWAP1 POP SWAP3 SWAP2 POP POP JUMP JUMPDEST PUSH32 0x496E73756666696369656E7420636F6C6C61746572616C20746F207265646565 PUSH0 DUP3 ADD MSTORE PUSH32 0x6D00000000000000000000000000000000000000000000000000000000000000 PUSH1 0x20 DUP3 ADD MSTORE POP JUMP JUMPDEST PUSH0 PUSH2 0x2A98 PUSH1 0x21 DUP4 PUSH2 0x279D JUMP JUMPDEST SWAP2 POP PUSH2 0x2AA3 DUP3 PUSH2 0x2A3E JUMP JUMPDEST PUSH1 0x40 DUP3 ADD SWAP1 POP SWAP2 SWAP1 POP JUMP JUMPDEST PUSH0 PUSH1 0x20 DUP3 ADD SWAP1 POP DUP2 DUP2 SUB PUSH0 DUP4 ADD MSTORE PUSH2 0x2AC5 DUP2 PUSH2 0x2A8C JUMP JUMPDEST SWAP1 POP SWAP2 SWAP1 POP JUMP JUMPDEST PUSH0 PUSH2 0x2AD6 DUP3 PUSH2 0x1FF9 JUMP JUMPDEST SWAP2 POP PUSH2 0x2AE1 DUP4 PUSH2 0x1FF9 JUMP JUMPDEST SWAP3 POP DUP3 DUP3 ADD SWAP1 POP DUP1 DUP3 GT ISZERO PUSH2 0x2AF9 JUMPI PUSH2 0x2AF8 PUSH2 0x2973 JUMP JUMPDEST JUMPDEST SWAP3 SWAP2 POP POP JUMP JUMPDEST PUSH32 0x496E73756666696369656E742042524943532062616C616E6365000000000000 PUSH0 DUP3 ADD MSTORE POP JUMP JUMPDEST PUSH0 PUSH2 0x2B33 PUSH1 0x1A DUP4 PUSH2 0x279D JUMP JUMPDEST SWAP2 POP PUSH2 0x2B3E DUP3 PUSH2 0x2AFF JUMP JUMPDEST PUSH1 0x20 DUP3 ADD SWAP1 POP SWAP2 SWAP1 POP JUMP JUMPDEST PUSH0 PUSH1 0x20 DUP3 ADD SWAP1 POP DUP2 DUP2 SUB PUSH0 DUP4 ADD MSTORE PUSH2 0x2B60 DUP2 PUSH2 0x2B27 JUMP JUMPDEST SWAP1 POP SWAP2 SWAP1 POP JUMP JUMPDEST PUSH0 PUSH1 0x40 DUP3 ADD SWAP1 POP PUSH2 0x2B7A PUSH0 DUP4 ADD DUP6 PUSH2 0x23DA JUMP JUMPDEST PUSH2 0x2B87 PUSH1 0x20 DUP4 ADD DUP5 PUSH2 0x2002 JUMP JUMPDEST SWAP4 SWAP3 POP POP POP JUMP JUMPDEST PUSH32 0x4E487B7100000000000000000000000000000000000000000000000000000000 PUSH0 MSTORE PUSH1 0x32 PUSH1 0x4 MSTORE PUSH1 0x24 PUSH0 REVERT JUMPDEST PUSH0 PUSH2 0x2BC5 DUP3 PUSH2 0x1FF9 JUMP JUMPDEST SWAP2 POP PUSH2 0x2BD0 DUP4 PUSH2 0x1FF9 JUMP JUMPDEST SWAP3 POP DUP3 DUP3 SUB SWAP1 POP DUP2 DUP2 GT ISZERO PUSH2 0x2BE8 JUMPI PUSH2 0x2BE7 PUSH2 0x2973 JUMP JUMPDEST JUMPDEST SWAP3 SWAP2 POP POP JUMP JUMPDEST PUSH32 0x4661696C656420746F2066756C6C792072657475726E20636F6C6C6174657261 PUSH0 DUP3 ADD MSTORE PUSH32 0x6C00000000000000000000000000000000000000000000000000000000000000 PUSH1 0x20 DUP3 ADD MSTORE POP JUMP JUMPDEST PUSH0 PUSH2 0x2C48 PUSH1 0x21 DUP4 PUSH2 0x279D JUMP JUMPDEST SWAP2 POP PUSH2 0x2C53 DUP3 PUSH2 0x2BEE JUMP JUMPDEST PUSH1 0x40 DUP3 ADD SWAP1 POP SWAP2 SWAP1 POP JUMP JUMPDEST PUSH0 PUSH1 0x20 DUP3 ADD SWAP1 POP DUP2 DUP2 SUB PUSH0 DUP4 ADD MSTORE PUSH2 0x2C75 DUP2 PUSH2 0x2C3C JUMP JUMPDEST SWAP1 POP SWAP2 SWAP1 POP JUMP JUMPDEST PUSH32 0x4665652072617465206D757374206E6F74206578636565642031303025000000 PUSH0 DUP3 ADD MSTORE POP JUMP JUMPDEST PUSH0 PUSH2 0x2CB0 PUSH1 0x1D DUP4 PUSH2 0x279D JUMP JUMPDEST SWAP2 POP PUSH2 0x2CBB DUP3 PUSH2 0x2C7C JUMP JUMPDEST PUSH1 0x20 DUP3 ADD SWAP1 POP SWAP2 SWAP1 POP JUMP JUMPDEST PUSH0 PUSH1 0x20 DUP3 ADD SWAP1 POP DUP2 DUP2 SUB PUSH0 DUP4 ADD MSTORE PUSH2 0x2CDD DUP2 PUSH2 0x2CA4 JUMP JUMPDEST SWAP1 POP SWAP2 SWAP1 POP JUMP JUMPDEST PUSH0 DUP2 ISZERO ISZERO SWAP1 POP SWAP2 SWAP1 POP JUMP JUMPDEST PUSH2 0x2CF8 DUP2 PUSH2 0x2CE4 JUMP JUMPDEST DUP2 EQ PUSH2 0x2D02 JUMPI PUSH0 DUP1 REVERT JUMPDEST POP JUMP JUMPDEST PUSH0 DUP2 MLOAD SWAP1 POP PUSH2 0x2D13 DUP2 PUSH2 0x2CEF JUMP JUMPDEST SWAP3 SWAP2 POP POP JUMP JUMPDEST PUSH0 PUSH1 0x20 DUP3 DUP5 SUB SLT ISZERO PUSH2 0x2D2E JUMPI PUSH2 0x2D2D PUSH2 0x1F6C JUMP JUMPDEST JUMPDEST PUSH0 PUSH2 0x2D3B DUP5 DUP3 DUP6 ADD PUSH2 0x2D05 JUMP JUMPDEST SWAP2 POP POP SWAP3 SWAP2 POP POP JUMP JUMPDEST PUSH32 0x4661696C656420746F2072657475726E2066756C6C20636F6C6C61746572616C PUSH0 DUP3 ADD MSTORE POP JUMP JUMPDEST PUSH0 PUSH2 0x2D78 PUSH1 0x20 DUP4 PUSH2 0x279D JUMP JUMPDEST SWAP2 POP PUSH2 0x2D83 DUP3 PUSH2 0x2D44 JUMP JUMPDEST PUSH1 0x20 DUP3 ADD SWAP1 POP SWAP2 SWAP1 POP JUMP JUMPDEST PUSH0 PUSH1 0x20 DUP3 ADD SWAP1 POP DUP2 DUP2 SUB PUSH0 DUP4 ADD MSTORE PUSH2 0x2DA5 DUP2 PUSH2 0x2D6C JUMP JUMPDEST SWAP1 POP SWAP2 SWAP1 POP JUMP JUMPDEST PUSH32 0x4D69736D6174636865642073796D626F6C7320616E6420616D6F756E74730000 PUSH0 DUP3 ADD MSTORE POP JUMP JUMPDEST PUSH0 PUSH2 0x2DE0 PUSH1 0x1E DUP4 PUSH2 0x279D JUMP JUMPDEST SWAP2 POP PUSH2 0x2DEB DUP3 PUSH2 0x2DAC JUMP JUMPDEST PUSH1 0x20 DUP3 ADD SWAP1 POP SWAP2 SWAP1 POP JUMP JUMPDEST PUSH0 PUSH1 0x20 DUP3 ADD SWAP1 POP DUP2 DUP2 SUB PUSH0 DUP4 ADD MSTORE PUSH2 0x2E0D DUP2 PUSH2 0x2DD4 JUMP JUMPDEST SWAP1 POP SWAP2 SWAP1 POP JUMP JUMPDEST PUSH32 0x556E737570706F72746564204342444320746F6B656E00000000000000000000 PUSH0 DUP3 ADD MSTORE POP JUMP JUMPDEST PUSH0 PUSH2 0x2E48 PUSH1 0x16 DUP4 PUSH2 0x279D JUMP JUMPDEST SWAP2 POP PUSH2 0x2E53 DUP3 PUSH2 0x2E14 JUMP JUMPDEST PUSH1 0x20 DUP3 ADD SWAP1 POP SWAP2 SWAP1 POP JUMP JUMPDEST PUSH0 PUSH1 0x20 DUP3 ADD SWAP1 POP DUP2 DUP2 SUB PUSH0 DUP4 ADD MSTORE PUSH2 0x2E75 DUP2 PUSH2 0x2E3C JUMP JUMPDEST SWAP1 POP SWAP2 SWAP1 POP JUMP JUMPDEST PUSH32 0x496E73756666696369656E7420616C6C6F77616E636520666F7220746F6B656E PUSH0 DUP3 ADD MSTORE POP JUMP JUMPDEST PUSH0 PUSH2 0x2EB0 PUSH1 0x20 DUP4 PUSH2 0x279D JUMP JUMPDEST SWAP2 POP PUSH2 0x2EBB DUP3 PUSH2 0x2E7C JUMP JUMPDEST PUSH1 0x20 DUP3 ADD SWAP1 POP SWAP2 SWAP1 POP JUMP JUMPDEST PUSH0 PUSH1 0x20 DUP3 ADD SWAP1 POP DUP2 DUP2 SUB PUSH0 DUP4 ADD MSTORE PUSH2 0x2EDD DUP2 PUSH2 0x2EA4 JUMP JUMPDEST SWAP1 POP SWAP2 SWAP1 POP JUMP JUMPDEST PUSH0 PUSH1 0x60 DUP3 ADD SWAP1 POP PUSH2 0x2EF7 PUSH0 DUP4 ADD DUP7 PUSH2 0x23DA JUMP JUMPDEST PUSH2 0x2F04 PUSH1 0x20 DUP4 ADD DUP6 PUSH2 0x23DA JUMP JUMPDEST PUSH2 0x2F11 PUSH1 0x40 DUP4 ADD DUP5 PUSH2 0x2002 JUMP JUMPDEST SWAP5 SWAP4 POP POP POP POP JUMP JUMPDEST PUSH32 0x4E6F7420656E6F75676820636F6C6C61746572616C2076616C756520746F206D PUSH0 DUP3 ADD MSTORE PUSH32 0x696E742042524943530000000000000000000000000000000000000000000000 PUSH1 0x20 DUP3 ADD MSTORE POP JUMP JUMPDEST PUSH0 PUSH2 0x2F73 PUSH1 0x29 DUP4 PUSH2 0x279D JUMP JUMPDEST SWAP2 POP PUSH2 0x2F7E DUP3 PUSH2 0x2F19 JUMP JUMPDEST PUSH1 0x40 DUP3 ADD SWAP1 POP SWAP2 SWAP1 POP JUMP JUMPDEST PUSH0 PUSH1 0x20 DUP3 ADD SWAP1 POP DUP2 DUP2 SUB PUSH0 DUP4 ADD MSTORE PUSH2 0x2FA0 DUP2 PUSH2 0x2F67 JUMP JUMPDEST SWAP1 POP SWAP2 SWAP1 POP JUMP INVALID LOG2 PUSH5 0x6970667358 0x22 SLT KECCAK256 0xBB 0xBF 0xC8 SWAP5 0xB7 0xBC PUSH32 0xF01EA5307431038BF173C93E8668E12B17420A9FC4CF50B00464736F6C634300 ADDMOD BYTE STOP CALLER "
		},
		"gasEstimates": {
			"creation": {
				"codeDepositCost": "2450600",
				"executionCost": "infinite",
				"totalCost": "infinite"
			},
			"external": {
				"adminAddress()": "2615",
				"bricsToken()": "infinite",
				"brlToken()": "infinite",
				"cbdcTokens(string)": "infinite",
				"cnyToken()": "infinite",
				"collateralBalance(address,string)": "infinite",
				"collateralRatio()": "2536",
				"depositCollateral(string[],uint256[])": "infinite",
				"exchangeRates(string)": "infinite",
				"getAdmin()": "2626",
				"getAllowance(address,address)": "infinite",
				"getBRICSBalance(address)": "infinite",
				"getBalance(address,string)": "infinite",
				"getExchangeRate(string)": "infinite",
				"getUserCollateral(address,string)": "infinite",
				"getUserCollateralInUsd(address)": "infinite",
				"getUserCollateralValue(address)": "infinite",
				"goldExchangeRates(string)": "infinite",
				"inrToken()": "infinite",
				"inventiveFee()": "2514",
				"redeemBRICS(uint256)": "infinite",
				"redeemBRICSV1(uint256)": "infinite",
				"rubToken()": "infinite",
				"setExchangeRate(string,uint256)": "infinite",
				"setGoldExchangeRate(string,uint256)": "infinite",
				"setStabilityFeeRate(uint256)": "24752",
				"stabilityFeeRate()": "2493",
				"usdToken()": "infinite",
				"zarToken()": "infinite"
			},
			"internal": {
				"checkAllowance(address,address,uint256)": "infinite",
				"transferTokens(address,address,address,uint256)": "infinite"
			}
		},
		"methodIdentifiers": {
			"adminAddress()": "fc6f9468",
			"bricsToken()": "868ecbb0",
			"brlToken()": "a9545a10",
			"cbdcTokens(string)": "52391fcd",
			"cnyToken()": "10ccbbc0",
			"collateralBalance(address,string)": "0c577db2",
			"collateralRatio()": "b4eae1cb",
			"depositCollateral(string[],uint256[])": "e5632da4",
			"exchangeRates(string)": "43225acd",
			"getAdmin()": "6e9960c3",
			"getAllowance(address,address)": "0af4187d",
			"getBRICSBalance(address)": "0743625a",
			"getBalance(address,string)": "1dd7cecf",
			"getExchangeRate(string)": "f4b54314",
			"getUserCollateral(address,string)": "19163a0f",
			"getUserCollateralInUsd(address)": "2262b43b",
			"getUserCollateralValue(address)": "75417da6",
			"goldExchangeRates(string)": "e2895e97",
			"inrToken()": "e85017d6",
			"inventiveFee()": "5a14b650",
			"redeemBRICS(uint256)": "addc9bd0",
			"redeemBRICSV1(uint256)": "15037ce1",
			"rubToken()": "0b9dca6d",
			"setExchangeRate(string,uint256)": "0c80246a",
			"setGoldExchangeRate(string,uint256)": "be2a0174",
			"setStabilityFeeRate(uint256)": "8c676a8e",
			"stabilityFeeRate()": "7d83cef3",
			"usdToken()": "f897a22b",
			"zarToken()": "dc0f957e"
		}
	},
	"abi": [
		{
			"inputs": [
				{
					"internalType": "address",
					"name": "_BRICS_Address",
					"type": "address"
				},
				{
					"internalType": "address",
					"name": "_BRL_Address",
					"type": "address"
				},
				{
					"internalType": "address",
					"name": "_RUB_Address",
					"type": "address"
				},
				{
					"internalType": "address",
					"name": "_INR_Address",
					"type": "address"
				},
				{
					"internalType": "address",
					"name": "_CNY_Address",
					"type": "address"
				},
				{
					"internalType": "address",
					"name": "_ZAR_Address",
					"type": "address"
				},
				{
					"internalType": "address",
					"name": "_USD_Address",
					"type": "address"
				}
			],
			"stateMutability": "nonpayable",
			"type": "constructor"
		},
		{
			"inputs": [],
			"name": "adminAddress",
			"outputs": [
				{
					"internalType": "address",
					"name": "",
					"type": "address"
				}
			],
			"stateMutability": "view",
			"type": "function"
		},
		{
			"inputs": [],
			"name": "bricsToken",
			"outputs": [
				{
					"internalType": "contract BRICSToken",
					"name": "",
					"type": "address"
				}
			],
			"stateMutability": "view",
			"type": "function"
		},
		{
			"inputs": [],
			"name": "brlToken",
			"outputs": [
				{
					"internalType": "contract BRLCBDCToken",
					"name": "",
					"type": "address"
				}
			],
			"stateMutability": "view",
			"type": "function"
		},
		{
			"inputs": [
				{
					"internalType": "string",
					"name": "",
					"type": "string"
				}
			],
			"name": "cbdcTokens",
			"outputs": [
				{
					"internalType": "contract ERC20",
					"name": "",
					"type": "address"
				}
			],
			"stateMutability": "view",
			"type": "function"
		},
		{
			"inputs": [],
			"name": "cnyToken",
			"outputs": [
				{
					"internalType": "contract CNYCBDCToken",
					"name": "",
					"type": "address"
				}
			],
			"stateMutability": "view",
			"type": "function"
		},
		{
			"inputs": [
				{
					"internalType": "address",
					"name": "",
					"type": "address"
				},
				{
					"internalType": "string",
					"name": "",
					"type": "string"
				}
			],
			"name": "collateralBalance",
			"outputs": [
				{
					"internalType": "uint256",
					"name": "",
					"type": "uint256"
				}
			],
			"stateMutability": "view",
			"type": "function"
		},
		{
			"inputs": [],
			"name": "collateralRatio",
			"outputs": [
				{
					"internalType": "uint256",
					"name": "",
					"type": "uint256"
				}
			],
			"stateMutability": "view",
			"type": "function"
		},
		{
			"inputs": [
				{
					"internalType": "string[]",
					"name": "symbols",
					"type": "string[]"
				},
				{
					"internalType": "uint256[]",
					"name": "amounts",
					"type": "uint256[]"
				}
			],
			"name": "depositCollateral",
			"outputs": [],
			"stateMutability": "nonpayable",
			"type": "function"
		},
		{
			"inputs": [
				{
					"internalType": "string",
					"name": "",
					"type": "string"
				}
			],
			"name": "exchangeRates",
			"outputs": [
				{
					"internalType": "uint256",
					"name": "",
					"type": "uint256"
				}
			],
			"stateMutability": "view",
			"type": "function"
		},
		{
			"inputs": [],
			"name": "getAdmin",
			"outputs": [
				{
					"internalType": "address",
					"name": "",
					"type": "address"
				}
			],
			"stateMutability": "view",
			"type": "function"
		},
		{
			"inputs": [
				{
					"internalType": "address",
					"name": "token",
					"type": "address"
				},
				{
					"internalType": "address",
					"name": "owner",
					"type": "address"
				}
			],
			"name": "getAllowance",
			"outputs": [
				{
					"internalType": "uint256",
					"name": "",
					"type": "uint256"
				}
			],
			"stateMutability": "view",
			"type": "function"
		},
		{
			"inputs": [
				{
					"internalType": "address",
					"name": "user",
					"type": "address"
				}
			],
			"name": "getBRICSBalance",
			"outputs": [
				{
					"internalType": "uint256",
					"name": "",
					"type": "uint256"
				}
			],
			"stateMutability": "view",
			"type": "function"
		},
		{
			"inputs": [
				{
					"internalType": "address",
					"name": "user",
					"type": "address"
				},
				{
					"internalType": "string",
					"name": "tokenSymbol",
					"type": "string"
				}
			],
			"name": "getBalance",
			"outputs": [
				{
					"internalType": "uint256",
					"name": "",
					"type": "uint256"
				}
			],
			"stateMutability": "view",
			"type": "function"
		},
		{
			"inputs": [
				{
					"internalType": "string",
					"name": "symbol",
					"type": "string"
				}
			],
			"name": "getExchangeRate",
			"outputs": [
				{
					"internalType": "uint256",
					"name": "",
					"type": "uint256"
				}
			],
			"stateMutability": "view",
			"type": "function"
		},
		{
			"inputs": [
				{
					"internalType": "address",
					"name": "user",
					"type": "address"
				},
				{
					"internalType": "string",
					"name": "symbol",
					"type": "string"
				}
			],
			"name": "getUserCollateral",
			"outputs": [
				{
					"internalType": "uint256",
					"name": "",
					"type": "uint256"
				}
			],
			"stateMutability": "view",
			"type": "function"
		},
		{
			"inputs": [
				{
					"internalType": "address",
					"name": "user",
					"type": "address"
				}
			],
			"name": "getUserCollateralInUsd",
			"outputs": [
				{
					"internalType": "uint256",
					"name": "",
					"type": "uint256"
				}
			],
			"stateMutability": "view",
			"type": "function"
		},
		{
			"inputs": [
				{
					"internalType": "address",
					"name": "user",
					"type": "address"
				}
			],
			"name": "getUserCollateralValue",
			"outputs": [
				{
					"internalType": "uint256",
					"name": "totalUsdValue",
					"type": "uint256"
				}
			],
			"stateMutability": "view",
			"type": "function"
		},
		{
			"inputs": [
				{
					"internalType": "string",
					"name": "",
					"type": "string"
				}
			],
			"name": "goldExchangeRates",
			"outputs": [
				{
					"internalType": "uint256",
					"name": "",
					"type": "uint256"
				}
			],
			"stateMutability": "view",
			"type": "function"
		},
		{
			"inputs": [],
			"name": "inrToken",
			"outputs": [
				{
					"internalType": "contract INRCBDCToken",
					"name": "",
					"type": "address"
				}
			],
			"stateMutability": "view",
			"type": "function"
		},
		{
			"inputs": [],
			"name": "inventiveFee",
			"outputs": [
				{
					"internalType": "uint256",
					"name": "",
					"type": "uint256"
				}
			],
			"stateMutability": "view",
			"type": "function"
		},
		{
			"inputs": [
				{
					"internalType": "uint256",
					"name": "bricsAmount",
					"type": "uint256"
				}
			],
			"name": "redeemBRICS",
			"outputs": [],
			"stateMutability": "nonpayable",
			"type": "function"
		},
		{
			"inputs": [
				{
					"internalType": "uint256",
					"name": "bricsAmount",
					"type": "uint256"
				}
			],
			"name": "redeemBRICSV1",
			"outputs": [],
			"stateMutability": "nonpayable",
			"type": "function"
		},
		{
			"inputs": [],
			"name": "rubToken",
			"outputs": [
				{
					"internalType": "contract RUBCBDCToken",
					"name": "",
					"type": "address"
				}
			],
			"stateMutability": "view",
			"type": "function"
		},
		{
			"inputs": [
				{
					"internalType": "string",
					"name": "symbol",
					"type": "string"
				},
				{
					"internalType": "uint256",
					"name": "rate",
					"type": "uint256"
				}
			],
			"name": "setExchangeRate",
			"outputs": [],
			"stateMutability": "nonpayable",
			"type": "function"
		},
		{
			"inputs": [
				{
					"internalType": "string",
					"name": "symbol",
					"type": "string"
				},
				{
					"internalType": "uint256",
					"name": "rate",
					"type": "uint256"
				}
			],
			"name": "setGoldExchangeRate",
			"outputs": [],
			"stateMutability": "nonpayable",
			"type": "function"
		},
		{
			"inputs": [
				{
					"internalType": "uint256",
					"name": "newRate",
					"type": "uint256"
				}
			],
			"name": "setStabilityFeeRate",
			"outputs": [],
			"stateMutability": "nonpayable",
			"type": "function"
		},
		{
			"inputs": [],
			"name": "stabilityFeeRate",
			"outputs": [
				{
					"internalType": "uint256",
					"name": "",
					"type": "uint256"
				}
			],
			"stateMutability": "view",
			"type": "function"
		},
		{
			"inputs": [],
			"name": "usdToken",
			"outputs": [
				{
					"internalType": "contract USDCBDCToken",
					"name": "",
					"type": "address"
				}
			],
			"stateMutability": "view",
			"type": "function"
		},
		{
			"inputs": [],
			"name": "zarToken",
			"outputs": [
				{
					"internalType": "contract ZARCBDCToken",
					"name": "",
					"type": "address"
				}
			],
			"stateMutability": "view",
			"type": "function"
		}
	]
}